:020000040800F2
:10000000B8160020ED010008AD5F0008854E00081D
:10001000A95F0008190F00084175000800000000E2
:100020000000000000000000000000003D6000082B
:100030007D10000800000000E95F000875600008FE
:10004000070200080702000807020008070200086C
:10005000070200080702000807020008070200085C
:100060000702000807020008070200081D0F000829
:10007000290F0008350F0008410F00084D0F000838
:10008000590F0008650F0008070200080702000862
:10009000070200080702000807020008070200081C
:1000A0000702000807020008FD60000807020008B8
:1000B000070200080702000807020008894E00082E
:1000C00007020008070200080702000807020008EC
:1000D000070200081D75000829750008357500081D
:1000E00007020008070200080702000807020008CC
:1000F00007020008070200080702000807020008BC
:10010000070200080702000809610008070200084A
:100110001D660008070200081561000807020008B4
:100120007D0F0008890F0008950F0008A10F000837
:10013000AD0F0008070200080702000807020008C8
:10014000070200080702000807020008070200086B
:10015000070200080702000807020008070200085B
:10016000070200080702000807020008070200084B
:10017000070200080702000807020008070200083B
:10018000070200080702000807020008070200082B
:10019000070200080000000007020008070200082C
:1001A000070200080702000807020008070200080B
:1001B00007020008070200080702000807020008FB
:1001C000710F000807020008070200080702000874
:1001D0000702000807020008DFF80CD000F0A8FBB7
:1001E0000048004741910008B816002006488047A3
:1001F00006480047FEE7FEE7FEE7FEE7FEE7FEE70C
:10020000FEE7FEE7FEE7FEE7E9600008D901000827
:100210002DE9F05F0546002092469B46884606463B
:10022000814640241BE0284641464746224600F0CE
:100230004BFA53465A46C01A914110D311461846FC
:10024000224600F032FA2D1A67EB01084F4622468B
:100250000120002100F029FA17EB00094E41201E71
:10026000A4F10104DFDC484631462A464346BDE896
:10027000F09FD2B201E000F8012B491EFBD270477B
:100280000022F6E710B513460A4604461946FFF762
:10029000F0FF204610BD2DE9FE4F804681EA0300A5
:1002A000C00F0C46009021F0004123F00045B8EB50
:1002B0000200A94105D24046214690461C460B4605
:1002C000024623F00040104347D0270DC7F30A0031
:1002D000C3F30A510290401A019040286BDAC3F32D
:1002E000130040F4801B0098924620B10023D2EB0B
:1002F000030A63EB0B0B01985946C0F140025046CC
:1003000000F0D3F906460D4650465946019A00F0D2
:10031000EBF910EB08006141002487EA115284EAEE
:10032000E7731A4340D0009A62B3019A012A4FEA58
:10033000075215DC001B61EB02014FF0004202EA9C
:100340000752CDE90042001C41F5801132462B4690
:1003500000F070FA03B0BDE8F08F40462146F9E79F
:10036000001B61EB0201001C41F5801300185B418A
:100370002018A2F5001747EB030140EAD570B61923
:100380006D4111E06D084FEA360645EAC0754FEA47
:100390000752001B61EB0201001C41F58011490866
:1003A0004FEA30000019514132462B4603B0BDE8F8
:1003B000F04F00F030BA0098012240000023D0EB4B
:1003C000020263EBE073009821464FEAE074B8EB59
:1003D000000061EB0401E9E783F000435BE781F093
:1003E000004158E72DE9FE4F81EA030404F0004480
:1003F00021F0004100944FF0000B23F0004350EA3D
:1004000001045ED052EA03045BD0C3F30A54C1F383
:100410000A552C44A4F2F3340194A0FB0254C1F316
:10042000130141F48011C3F3130343F4801301FB60
:10043000024400FB034E840A970A44EA815447EAC7
:100440008357A4FB076802958D0A05FB07854FEAD1
:10045000932C04FB0C542705029D4FEA065847EAEB
:100460001637B5EB08056EEB070C870E920E47EAC0
:10047000811742EA8312A7FB0201B6EB0B0164EB82
:1004800000042B0D43EA0C335E1844EB1C50DA4693
:100490005146E7FB0201C5F313044FEA0B3343EA6D
:1004A00014534FEA0432019C43EA0603A4F10C04FE
:1004B0000294009CCDE900B400F0BCF903B0BDE8A3
:1004C000F08F00200146F9E72DE9F04D81EA0304A1
:1004D00004F0004B21F0004514464FF0000A23F0D1
:1004E000004150EA050220D054EA01021DD0C5F3B4
:1004F0000A570246C5F31303C1F31300C1F30A56AA
:1005000040F4801543F48013A7EB0608101BD64671
:1005100008F2FD3873EB050002D308F1010801E091
:1005200092185B41B8F1000F03DA00200146BDE8E4
:10053000F08D00204FF48011064684460EE0171B14
:1005400073EB050705D3121B63EB050306434CEA67
:10055000010C49084FEA300092185B4150EA01074C
:10056000EDD152EA030012D082EA040083EA0501C9
:10057000084305D0101BAB4106D20122002306E040
:1005800000224FF0004302E06FF0010253101AEB1B
:1005900006004CEB085110EB0A0041EB0B01BDE8E3
:1005A000F04D00F038B90EB5C10F80EAE070084494
:1005B000CA07002140F233438DE80E000A460B467D
:1005C00000F038F903B000BD0EB540F2334102919E
:1005D0000021CDE900110A460B4600F02BF903B0CB
:1005E00000BD70B5C1F30A5201F000450024C1F30B
:1005F000130140F2FF3341F480119A4201DA0020E6
:1006000070BD40F233439A42A2F2334203DC5242BD
:1006100000F05AF800E090402C43F1D0404270BD09
:1006200000F0004230F000400AD0C10D01F56071C9
:10063000C0F3160042EA0151C20840071143704757
:1006400000200146704701F0004330B421F0004122
:1006500050EA010206D00A0DA2F56072C1F313013F
:10066000002A02DC30BC00207047440F44EAC10479
:10067000C100E01830BC00EBC25000F095B830B5B6
:100680000B46014600202022012409E021FA02F550
:100690009D4205D303FA02F5491B04FA02F52844EA
:1006A000151EA2F10102F1DC30BD202A04DB203A44
:1006B00000FA02F1002070479140C2F1200320FAB5
:1006C00003F3194390407047202A04DB203A21FAB3
:1006D00002F00021704721FA02F3D040C2F120025B
:1006E0009140084319467047202A06DBCB17203A71
:1006F00041FA02F043EAE07306E041FA02F3D04027
:10070000C2F1200291400843194670470FB40023FC
:1007100000B589B00CA900910B996FF00042CB6035
:100720001E4B06931E4B07930423CDE901321D4A4D
:10073000089202466B46002000F0AEF909B05DF861
:1007400014FB70B586B006464FF0FF300091CDE93E
:100750000101002015460C4604903246694604A863
:10076000FFF7D4FF03460498211825B108B10A46C3
:1007700000E022462A6000280DD0002B02DD009800
:10078000884208D0081B0094CDE90104324669462E
:1007900004A8FFF7BBFF06B070BD0000D10C000835
:1007A000EF0C00085D0900080029A8BF7047401C35
:1007B000490008BF20F00100704710B4B0FA80FC77
:1007C00000FA0CF050EA010404BF10BC704749B1B4
:1007D000CCF1200421FA04F411FA0CF118BF012124
:1007E00021430843A3EB0C01CB1D4FEA00614FEA04
:1007F000102042BF002010BC704700EBC3501044D3
:100800000029A4BF10BC7047401C490008BF20F05D
:10081000010010BC704710B5141E73F1000408DA13
:10082000401C41F1000192185B411A4301D120F0B4
:10083000010010BD2DE9F04D92469B4611B1B1FA71
:1008400081F202E0B0FA80F220329046FFF72DFFED
:1008500004460F4640EA0A0041EA0B0153465A4655
:10086000084313D0114653EA010019D0C8F14002E1
:100870005046FFF729FF05460E4650465946424668
:10088000FFF713FF084305D0012004E02046394656
:10089000BDE8F08D0020054346EAE0762C4337435F
:1008A0000A986305E40AA0EB08000022FD0A44EA66
:1008B00047540A3002D500200146E9E70105101926
:1008C0006941DDE9084500196941BDE8F04DA2E73D
:1008D000C1F30A52C1F3130140F2FF3341F4801116
:1008E0009A4202DA00200146704740F233439A42AE
:1008F000A2F2334202DC5242FFF7E6BEFFF7D5BE5A
:1009000030B5041E71F1000404DB4FF00044404296
:1009100064EB0101141E73F1000405DB1C464FF06B
:100920000043524263EB0403994208BF904230BD3A
:10093000064C074D06E0E06840F0010394E807002C
:1009400098471034AC42F6D3FFF74AFCD8A600080B
:10095000F8A6000800487047A4A6000810B5044691
:10096000FFF7F8FF0068005D00F0010010BD000017
:100970002DE9FF4F087883B09946FF2805D0491C20
:100980002D2804D00024002008E000200BE00124E2
:10099000F9E700EB800003EB4000491C0B78FF2BCC
:1009A000F7D104B1404200230293147819461D4642
:1009B0002D2C01D02B2C04D1521C2D2C13D0002413
:1009C0000294AA461478FF2C0FD00A25A3FB0578C1
:1009D00001FB05814FF0000C03FB0C11521CE319C5
:1009E0004AEB0101EEE70124EAE7814453EA010002
:1009F00002D019F5C87F06DA03980021C0E900117A
:100A000007B0BDE8F08F0025AE4E2F46DFF8B88264
:100A1000184600F07DF9CDE90001B9F1000002DAD5
:100A2000C9F1000400E004460023A74A1AEB030BB7
:100A300042EB045A12E0E00707D02A463346384614
:100A40004146FFF7CFFC074688462A463346104604
:100A50001946FFF7C7FC05460E466410002CEAD184
:100A6000DDE90001B9F1000F5A46534606DAFFF7F7
:100A70002BFD3A464346FFF727FD05E0FFF7B2FCA2
:100A80003A464346FFF7AEFC029A0AB181F00041B4
:100A9000039AC2E90001B3E72DE9FF4F1F468DB06D
:100AA000D7E901464FF0FF382E2045464FF00009A8
:100AB0000B90B9696D1C0E988847396A8246884741
:100AC0000028F6D1BAF1FF3F0AD024F4D064002EFA
:100AD00011DDBAF12B0F08D0BAF12D0F0BD102E0C6
:100AE000404611B08DE744F48064B9696D1C0E98DE
:100AF00088478246761E6946600501D52D2000E0B4
:100B00002B208DF8000001F1010B0DF1200809E008
:100B1000B9696D1C0E98884782460F9844F400749A
:100B2000761E0560002E02DDBAF1300FF0D00B9971
:100B30008A453ED144F0800406E00F99681CA9F173
:100B4000010944F400740860B9696D1C761E0E98A2
:100B5000884782463028F0D02BE00B998A4505D192
:100B6000200603D444F08004761E18E0504609F0B5
:100B7000ADF908B30DF11301761E44F400748B45F2
:100B800008D2AAF130000BF8010B200607D5A9F115
:100B9000010003E0200602D409F101008146A0050E
:100BA00002D50F99681C0860B9696D1C0E988847BA
:100BB0008246002ED1DC53E0002E51DDBAF1650FE4
:100BC00002D0BAF1450F4BD1A00549D5B9696D1CCA
:100BD00024F44074761E0E9888478246002E0CDD61
:100BE0002B2804D0BAF12D0F07D144F48074B969D1
:100BF0006D1C0E9888478246761EE00501D52D2192
:100C000000E02B2108F8011BCDF82C8021E00DF12C
:100C10002901761E44F4007488450CD2AAF13000F4
:100C200010F0FF0088F8000002D10B99884509D91F
:100C300008F1010806E0E00501D5244801E042F290
:100C40000F708146B9696D1C0E98884782460F98CF
:100C50000560002E04DD504609F038F90028D6D191
:100C6000F9690E988847FF208BF8000088F800008B
:100C70000020069007904B466A4608A906A8FFF791
:100C800077FEA00502D46FF001002AE714F0240FCC
:100C90000AD0E00714D1DDE906123868031D3B6075
:100CA0000068C0E900120BE0DDE90601FFF7CBFCAC
:100CB0000146E00704D13868021D3A60006801600F
:100CC00028460EE7000014400000F03FF1D8FFFF77
:100CD000426842B1016811F8013B23B1521EC0E9DC
:100CE0000012184670470121C160881E7047426893
:100CF0005AB1C368016843B983688B4205D0491E65
:100D0000521CC0E90012002070474FF0FF307047BE
:100D10000EB540F2334202920022CDE90022134682
:100D2000FFF788FD03B000BD70B50D46044620688E
:100D300004F0B6FA0646206804F090FA304347D033
:100D40002068C06810F0007F05D0607F012804BFD4
:100D5000207F012804D0022D17D10225082622E089
:100D60002268106810F0400F0CD14FF0FF300021C6
:100D7000CAF24031013088423BD22268136813F036
:100D8000400FF7D0402010600125206804F088FA59
:100D900030B1206804F074FA10B9206804F0ACFA9D
:100DA0000426012D0DD0206804F058FA30B12068D7
:100DB00004F066FA10B9206804F054FA032D08BF55
:100DC0000C2601F063F9054620688068304207D19F
:100DD000002070BD20688068304204BF002070BDD4
:100DE00001F054F9401B0528F4D92068806830428E
:100DF000F0D0E06D40F01000E065206E40F00100A2
:100E00002066012070BD0000B0B50446206804F0E3
:100E100037FA0546206804F037FA014600209DBBEA
:100E2000002908BFB0BD2068816801F00D010129CB
:100E30002BD104F0DBF920680321016001F026F9D1
:100E400005462068806810F0010F04BF0020B0BD87
:100E500007E000BF2068806810F0010F04BF002089
:100E6000B0BD01F013F9401B0228F3D92068806857
:100E700010F0010FEED0E06D40F01000E065206E44
:100E800040F0010020660120B0BDE06D40F0100090
:100E9000E065206E40F0010020660120B0BD00003A
:100EA000B0B50446206804F0EFF908B10020B0BDE9
:100EB000206881683F22C8F20002114209D0E06D2B
:100EC00040F01000E065206E40F001002066012037
:100ED000B0BD04F09DF901F0D9F80546206801681D
:100EE00011F0010F1CBF0020B0BD00BF04F0CCF911
:100EF00010B9206804F08CF901F0C8F8401B0328F1
:100F000004D32068006810F0010FD8D02068016871
:100F100011F0010FEAD0C9E7FEE7000040F26030AF
:100F2000C2F2000000F07ABE40F2C030C2F200000F
:100F300000F074BE40F22040C2F2000000F06EBE2D
:100F400040F28040C2F2000000F068BE40F2E04093
:100F5000C2F2000000F062BE40F24050C2F2000057
:100F600000F05CBE40F2A020C2F2000000F056BECD
:100F700040F20030C2F2000000F050BE40F22010FB
:100F8000C2F2000000F04ABE40F28010C2F200003F
:100F900000F044BE40F2E010C2F2000000F03EBE9D
:100FA00040F24020C2F2000000F038BE40F2C00023
:100FB000C2F2000000F032BE80B50168D0F844C033
:100FC00040F2084EC4F2020E0EF58362714538BF3E
:100FD0000EF57E722CF003031A4482640EF58F62C4
:100FE000C2646FF0070252FA81F14CF6CD42CCF6A2
:100FF000CC42A1FB0212C2F30411012202FA01F158
:10100000016580BD41684FF47F7202EA810240F6BB
:10101000FC03C4F2020302EB030C44331F3101F062
:101020001F01012202FA01F1C0E915C3C165704731
:1010300010B5D0E913CECCF804E0D0F854C0BCF120
:10104000000F1CBFD0E916CECCF804E0D0E910CEDA
:101050000EF01F0E4FF0010404FA0EF4CCF8044019
:101060000468636003688468102C0C4608BF14464B
:101070009C6008BF0A460068C26010BD704700004F
:10108000EFF3108072B600BFFEE700002DE9F043D9
:1010900083B08846044694F85800012801D1022004
:1010A00029E0012084F85800002002900190216876
:1010B00040F20015C5F2000505F5407605F580699A
:1010C000B14208BF4846B1F1A04F04BF40F2001042
:1010D000C5F2000038B104F0E7F80746206804F0D4
:1010E000E3F838430BD0E06D40F02000E0650120CC
:1010F000002184F85810C0B203B0BDE8F083206826
:1011000005F50071A8420F4618BF05F5C067B0F19C
:10111000A04F08BF0F46D8F80010B86820F4604010
:1011200091B1D8F80410084394F8381040EA4130DF
:10113000B860206840F48070A84211D14FF0A04000
:1011400004F0A6F8064615E0B860206840F4807008
:10115000A84221D14FF0A04004F09AF8064625E0BD
:10116000304604F095F80646484604F091F80643E8
:1011700005F5A065284604F08BF8304301D0002027
:10118000B6E7B86840F61F718843D8F80010D8F861
:1011900008200843104314E0304604F079F806466E
:1011A000484604F075F8064305F5A065284604F0A6
:1011B0006FF8304301D000209AE7B86840F61F71FD
:1011C0008843B860002093E72DE9F04182B00D46D6
:1011D00004460020019094F85800012801D1022112
:1011E0000EE0012084F85800206804F059F858B146
:1011F000E06D40F02000E0650121002084F85800F7
:10120000C8B202B0BDE8F081D5E90021206804F041
:1012100057F8206804F044F80646206804F01EF8E9
:1012200030434FF6FF77C0F2070740F0B1802968DE
:10123000AA682068B2F1004F06D1002204F066F8D7
:1012400020684FF0004103E004F060F820680021BE
:1012500004F0BEF8D5E904122068C368042940F000
:101260008080002103F0F4FF06462068002103F08F
:10127000EFFFC0F3846190FAA0F03E4218BFB0FACD
:1012800080F12868C0F3846290FAA0F3384218BF56
:10129000B3FA83F2914203D12068002104F090F860
:1012A0002068012103F0D4FF06462068012103F0E5
:1012B000CFFFC0F3846190FAA0F03E4218BFB0FAAD
:1012C00080F12868C0F3846290FAA0F3384218BF16
:1012D000B3FA83F2914203D12068012104F070F83F
:1012E0002068022103F0B4FF06462068022103F0C3
:1012F000AFFFC0F3846190FAA0F03E4218BFB0FA8D
:1013000080F12868C0F3846290FAA0F3384218BFD5
:10131000B3FA83F2914203D12068022104F050F81D
:101320002068032103F094FF06462068032103F0A0
:101330008FFFC0F3846190FAA0F03E4218BFB0FA6C
:1013400080F12868C0F3846290FAA0F3384218BF95
:10135000B3FA83F291421BD12068032104F030F8E4
:1013600016E0062606EA930302FA03F32A6804F05D
:1013700007F82969AA69206804F01AF8287F002272
:10138000012808BF4FF000722969206804F008F8AE
:10139000206803F079FF78BB2968EA68206803F0C9
:1013A000C5FFE8680021C4F27F01884224D1286883
:1013B000AA6890FAA0F1B1FA81F1384208BF810E13
:1013C000481C00F01E034FF0806707EB816101F0BD
:1013D000F8410A2B28BF41F0007100F01F000127DF
:1013E000874039430A2B28BF0A3800EB400041EA06
:1013F0000051206803F08AFF688848F2080108421B
:101400006ED0216840F20036C5F20006A6F50078DD
:1014100006F580674145384604BF40F20030C5F20A
:101420000000B1F1A04F04BF40F20030C5F200004F
:1014300003F002FF296840F20002CCF2213291420F
:1014400004D01022C9F2C002914235D1010233D436
:10145000216840F20062C5F20002914218BFB1F16A
:10146000A04F54D1414508BF3746B1F1A04F08BF46
:10147000374640F40001384603F07CFF40F2080094
:10148000C2F200000068800942F66351C0F23E518A
:10149000A0FB0101880900EB40000C2101EB80005A
:1014A0000190019898B300BF01980138019001980C
:1014B0000028F9D10021A0E62A68C10112D4002138
:1014C000CCF252718A420DD12168414508BF37469E
:1014D000B1F1A04F08BF374640F0807138461EE09A
:1014E00000218AE641024FF000013FF586AE00235D
:1014F000CCF684339A427FF480AE2168B1F1A04FDC
:101500000AD040F20012C5F20002914201D100213E
:1015100073E6414518BF3E4640F48001304603F073
:1015200029FF002169E600000068006C7047000098
:10153000F0B581B0044600200090ACB3E06D30B946
:10154000204600F00FF90020206684F8580020683B
:1015500003F092FE00281CBF206803F051FE2068B3
:1015600003F09AFED0B9206803F05CFE40F2080058
:10157000C2F200000068800942F66351C0F23E5199
:10158000A0FB01018809022101EB400002E000BF3D
:1015900000980138009000980028F9D1206803F0E5
:1015A0007BFE18B100250AE00125D7E0E06D40F090
:1015B0001000E065206E40F00100206601252068E3
:1015C00003F06EFEE16D01F010010843E06D03D001
:1015D00040F010000125C0E020F4817040F00200CE
:1015E000E065206803F050FE70BB206840F4807016
:1015F00040F20017C5F20007B84206D14FF0A040F4
:1016000003F042FE064638460BE007F5407003F053
:101610003BFE064607F5806003F036FE064307F5FD
:10162000A06003F031FE30430ED1D4E9002107F56C
:101630000073BA42184618BF07F5C060B2F1A04F58
:1016400008BF184603F090FE607FE16B41EA40302E
:10165000D4E902121043084394F8241040EA0140F0
:10166000012906D1A16A0022CFF6FE7202EB4141A8
:101670000843E16A00291FBF01F478710843216B18
:1016800008432168CA6844F20703CFF6F07302EA00
:10169000030240EA0200C86020680169626B21F021
:1016A000406141EA02010161206803F0F9FD06464C
:1016B000206803F0D3FD30433FD1207F94F83810E9
:1016C000490041EA80302168CA6844F202039A4323
:1016D0001043C8602068226901695AB141F4803121
:1016E00001612068D0F8C00043F6FF71884321698A
:1016F000084308E021F4803101612068D0F8C0007F
:1017000043F6FF7188432168C1F8C00094F8402077
:1017100020680169012A0DD140F2FD72914304F164
:1017200044078CCF266D114319433943314341F0AF
:10173000010101E021F00101016120686269016B92
:1017400021F00F01012A02BF226A013A114301630D
:10175000E06D4FF0010161F30100E065284601B042
:10176000F0BD000070B59CB0044600201B90CDE990
:101770001900CDE9170002A85421FEF781FD206869
:1017800040F20041C5F20001884201D01CB070BD9A
:101790004FF4803002904FF00040149002A801F006
:1017A0000BF8002818BFFFF76BFC41F24C00C4F2A5
:1017B0000200016841F480410160016801F4804148
:1017C00001910199016841F008010160006800F091
:1017D0000800019001984FF4804017904FF00300EB
:1017E00018904FF00006199640F60040C4F600002D
:1017F00017A900F05BFB40F2C005C2F2000540F201
:101800005840C4F202004FF025014FF080024FF41F
:1018100080734FF4806C85E84300C5E90362C5E935
:10182000053CC5E90766284600F068FA002818BF9D
:10183000FFF726FC6565AC621CB070BD2DE9F04772
:101840000E460446216840F20019C5F2000909F568
:10185000007509F5C0674945384608BF2846B1F10B
:10186000A04F08BF284603F0EFFC8046A069082877
:1018700001D108250FE02068B8F1090F67D80121D0
:1018800001FA08F140F22122114260D0C06810F044
:10189000010F68D1042500F0F9FB8246206800683A
:1018A000284211D1771C00BF57B100F0EFFB1EB1E9
:1018B000A0EB0A00B04203D92068006828425FD03C
:1018C000206800682842EFD0E06D40F40070E065C9
:1018D000206803F0EDFC90B1607F80B9206800685B
:1018E00010F0080F0BD0E06D20F48070E065E06D23
:1018F00010F4805F02BFE06D40F00100E0652168F8
:1019000009F580608142084608BF09F540704945E5
:10191000024608BF4FF0A0428A4209D0B8F1090F31
:1019200029D8012202FA08F240F221231A4222D0D9
:101930000846C068082D01D1082002E0400402D406
:101940000C20216808600020C0B2BDE8F08748453F
:1019500008BF2F46B0F1A04F08BF2F46384603F00E
:101960006FFC002896D0E06D40F02000E06501207B
:10197000C0B2BDE8F087494508BF4FF0A040D8E7A6
:10198000E06D40F00400E065002084F8580003207A
:10199000C0B2BDE8F087000070B50446216840F28F
:1019A0000046C5F20006A6F54070A6F58072814299
:1019B000104618BF06F54070B1F1A04F08BF1046A1
:1019C00003F042FC0546206803F06AFC18B994F85D
:1019D0005800012801D1022070BD012084F8580070
:1019E0002046FFF75DFA00281EBF002184F858103A
:1019F00070BDE06D40F6017120EA010040F4807096
:101A0000E065216840F20010C5F20000814207D075
:101A100040F20052C5F20002914207D1324601E085
:101A20004FF0A042002D18BF8A4203D1E16D21F48E
:101A30008011E165E26D002112F4805F4FF0000239
:101A40001CBF226E22F00602226622684FF01C03A1
:101A5000136084F85810216881421FD040F2005270
:101A6000C5F2000291421DD132468A421AD0092D98
:101A700005D80122AA4040F221231A4212D1E16D79
:101A800041F48011E165216881421AD040F2005092
:101A9000C5F20000814208BF314614E04FF0A04279
:101AA0008A42E4D1C86810F0007F1FBFE06D0121B9
:101AB00061F30D30E065206803F014FC4FF0000086
:101AC00070BD4FF0A041C86810F0007F04BF002037
:101AD00070BDE06D4FF0010161F30D30E0654FF036
:101AE000000070BD10B5044694F85800012804BFEA
:101AF000022010BD4FF0010084F8580020464FF03E
:101B00000301FFF711F958B92046FFF77DF938B9FD
:101B1000E06D41F20111884340F00100E0650020D2
:101B2000002184F8581010BD90F82510022924D106
:101B300001680A6822F00E020A60816C0A6822F4C9
:101B400080720A6001680A6822F001020A60D0E926
:101B5000101202F01F02012303FA02F24A60D0E9D8
:101B600013124A60416D61B10A6822F480720A6002
:101B7000D0E916124A60002104E00421C16301216A
:101B800000E00021012280F82520002280F8242096
:101B90000846704790F82510022933D101680A6879
:101BA00022F00E020A6001680A6822F001020A604F
:101BB000816C0A6822F480720A60D0E9102101F079
:101BC0001F03012101FA03F35360D0E9132353608B
:101BD000426D002A1FBF136823F480731360D0E99D
:101BE000162318BF536080F825104FF0000180F8CD
:101BF0002410826B22B180B590470021BDE880405F
:101C0000084670470421C163012180F82510002295
:101C100080F8242008467047C06B704780B5D0E933
:101C20001013D1F800C001680A6803F01F0E12F00B
:101C3000040F1EBF042303FA0EF313EA0C0316D09D
:101C40000A6812F0200F02BF0A6822F004020A603C
:101C5000D0E9101202F01F024FF0040303FA02F25F
:101C60004A60016B002948D0BDE8804008479307CF
:101C700020D5022303FA0EF313EA0C031AD00A68E4
:101C800012F0200F06D10A6822F00A020A60012130
:101C900080F82510D0E9101202F01F02022303FA87
:101CA00002F24A60002180F82410C16A29B3BDE81D
:101CB00080400847110720D5082101FA0EF111EAEA
:101CC0000C0108BF80BD01680A6822F00E020A609C
:101CD000D0E9101202F01F024FF0010303FA02F2E2
:101CE0004A60C36380F825304FF0000180F824106B
:101CF000416B11B1BDE88040084780BDF0B581B0AF
:101D00000446002C02BF012001B0F0BD206840F263
:101D1000000CC4F2020C0CF581624FF6F833CBF6DE
:101D2000FD73904238BF03F5806303444CF6CD4108
:101D3000CCF6CC41A3FB01134FF6FC71C3F6FF7147
:101D400001EA93010CF5806390423CBF0023C4F28A
:101D50000203C4E910314FF0020084F82500206826
:101D6000016847F6F07221EA020CD4E90223D4E9B3
:101D7000041E04F11807E0CF42EA0C0242EA030213
:101D800041EA020141EA0E0141EA050141EA060188
:101D900041EA070101602046FFF70EF9A068B0F59F
:101DA000804F04BF00206060A06C21790160D4E9FD
:101DB000130141606068A0F10100032809D82046A2
:101DC000FFF720F9606D00210160D4E91601416040
:101DD00003E00020C4E91500E0650020E063012174
:101DE00084F8251084F8240001B0F0BD10B5044635
:101DF00094F82400012820D0012084F8240094F8CD
:101E00002500012816D1022084F825000020E06377
:101E1000D4F800C0DCF8000020F00100CCF800008D
:101E20002046FFF705F92068226B016842B141F0B6
:101E30000E010CE0002084F824000220C0B210BD86
:101E400021F0040101602068016841F00A0101608D
:101E5000A06C016811F4803F1EBF016841F48071DD
:101E60000160606D00281EBF016841F4807101604F
:101E70002068016841F0010101604FF00000C0B22C
:101E800010BD0000B0B5044600F000F9054640F270
:101E90003C00C2F200000068611C18BF044400BF8F
:101EA00000F0F4F8401BA042FAD3B0BD2DE9F04F8A
:101EB00082B00E68002E00F0D78041F20042C4F6D6
:101EC00000020627904208BF052700F138424FEA7A
:101ED000B223052B38BF4FEAB227009700234FF0FB
:101EE000030E40F2004AC4F2010A0025012400BF9B
:101EF000A4F10109012202FA09FB16EA0B0800F01D
:101F0000A8804E6806F00306013E012E13D80EFA93
:101F100005F6D0F808C02CEA0606CA68AA40324383
:101F20008260426822EA0B024E68C6F3001606FA87
:101F300009F6324342604A6802F00302032A08D0DD
:101F40000EFA05F2C66826EA02028E68AE403243F7
:101F5000C2604A6802F00302022A14D103F01C0294
:101F60000F2707FA02FC4FF6FC76C7F6FF7606EA63
:101F7000590707443E6A26EA0C0C0E6906FA02F27B
:101F800042EA0C023A620EFA05F2076827EA0202F8
:101F90004F6807F00307AF403A4302608A7992071F
:101FA00057D041F26002C4F2020217463A6842F08A
:101FB00001023A603A6802F00102019229F003023C
:101FC0005244019F4FF60847CFF6FF77B94652F8C3
:101FD00009C003F00C060F27B7402CEA070C009F3E
:101FE00007FA06F64CEA060742F80970DAF8082004
:101FF00022EA08024F6817F4801F18BF42EA08025D
:10200000CAF8082040F20C42C4F2010216463268B7
:1020100022EA08024F6817F4001F18BF42EA0802BC
:102020003260DAF8042022EA08024F6817F4003F11
:1020300018BF42EA0802CAF80420DAF8002022EAAF
:1020400008024F6817F4803F18BF42EA0802CAF836
:1020500000200E6836FA04F203F1040305F10205CC
:1020600004F101047FF444AF02B0BDE8F08F00003A
:102070000069084018BF01207047000000F12803E4
:10208000002A18BF00F118031960704741F2B02010
:10209000C2F200000068704790F84120202A03D166
:1020A00090F84020012A02D10221C8B270472422B0
:1020B00080F841200268136823F00103136002686E
:1020C000136823F480531360026813681943116086
:1020D00001680A6842F001020A60202180F841107C
:1020E000002180F84010C8B27047000090F84120ED
:1020F000202A03D190F84020012A02D10221C8B23F
:102100007047242280F841200268136823F00103FD
:1021100013600268136823F4706343EA01211160BD
:1021200001680A6842F001020A60202180F841102B
:10213000002180F84010C8B2704700000268916921
:102140001268436B002B08BF704780B59847BDE805
:102150008040704710B50446002C04BF012010BD1C
:1021600094F8410028B9002084F84000204600F08F
:102170001BF9242084F841002068016821F0010146
:102180000160D4E9000121F070610161206881687B
:1021900021F4004181602068D4E902124FF4044325
:1021A000012A08BF4FF4004319438160E068022808
:1021B00002BF20684FF4006141602068416841F02F
:1021C000007141F4004141602068C16821F4004180
:1021D000C160206804F110030ECB41EA020141EA1C
:1021E0000321C1602068D4E9071241EA02010160BD
:1021F0002068016841F0010101604FF00000606457
:102200004FF0200184F84110206384F8420010BD93
:102210002DE9F04F83B01F4616468A46044694F8CF
:10222000410020280ED1DDF830B0BBF1000F1CBFFB
:10223000DDF83480B8F1000F06D14FF4007060640F
:102240000125ADE00225ABE094F84000012801D162
:102250000225A5E0012584F84050FFF717FF8146CD
:10226000CDF8009020464FF400410122192302F0DE
:1022700029FF002840F094800E99222084F8410024
:10228000402084F8420000256564C4F824B0A4F816
:102290002A8088466563CDE900892046514632464A
:1022A0003B4602F0BBFE18B184F84050012577E0B0
:1022B000618D42F20040C8F20000B1F5807F08D382
:1022C000FF212185009020465146FF224FF0807368
:1022D00007E0618D21850090CAB2204651464FF03B
:1022E000007302F0D3FE0026FF2700BFCDF8009058
:1022F000204604210022434602F0E4FED0BB2068C1
:10230000406A616A0870606A01306062208D01383D
:102310002085608D01386085608D00B3208DF0B917
:10232000CDF80090204680210022434602F0CAFEEC
:10233000A8BB608DB0F5807F07D327850096204627
:102340005146FF224FF0807307E0608D2085009694
:10235000C2B2204651464FF0007302F097FE608DE6
:102360000028C3D1204641464A4602F0E7FE18B194
:10237000012515E0012513E020682021C1612068B6
:1023800042684EF60003CFF600631A40426084F8BC
:102390004110002584F8425084F8405000E00125A7
:1023A000E8B203B0BDE8F08F2DE9F0479CB00446D9
:1023B00000251B95CDE91955CDE9175502A85421E3
:1023C000FDF75EFF206840F20848C4F2020841F2BF
:1023D0004C07C4F2020745F60001C4F2000188422E
:1023E00000F0948045F20041C4F20001884240F0C0
:1023F000F480402002900026099602A800F0DCF943
:10240000002818BFFEF73CFE386840F00100386035
:10241000386800F0010001900198386840F002002F
:102420003860386800F00200019001984FF40040D5
:1024300017904FF01209CDE918961A964FF0040A3A
:10244000CDF86CA017AD4FF090402946FFF72EFD58
:102450004FF40070CDE91709CDE91966CDF86CA0ED
:1024600040F20040C4F600002946FFF71FFDF8685F
:1024700040F40010F860F86800F400100190019832
:1024800040F22015C2F20005C5F800804FF0100997
:10249000C5E90196EE604FF080072E62C5E9066639
:1024A000C5E904762846FFF729FC002818BFFEF787
:1024B000E7FDE563AC6208F1140040F28015C2F25A
:1024C000000528604FF01100C5E901094FF0000038
:1024D000C5E90307C5E90700C5E905002846FFF778
:1024E0000DFC002818BFFEF7CBFDA563AC624FF0D2
:1024F0001F004FF000014FF0000200F0D7F84FF03E
:102500001F0000F0D1F81CB0BDE8F0874FF0800943
:10251000CDF808900A9502A800F04EF9002818BFDF
:10252000FEF7AEFD386840F001003860386800F012
:102530000100019001984FF4407017904FF0120A7B
:10254000CDF860A04FF00006CDE919664FF0040009
:102550001B9017A94FF09040FFF7A8FCF86840F4D3
:102560008000F860F86800F480000190019808F19C
:10257000280040F2E015C2F20005C5E9000AC5E9ED
:1025800002662E62C5E90666C5E904962846FFF78D
:10259000B5FB002818BFFEF773FDE563AC6208F1D8
:1025A0003C0040F24025C2F2000528604FF01300C5
:1025B00068604FF01000C5E902064FF080002E62FF
:1025C000C5E90666C5E904062846FFF797FB00281B
:1025D00018BFFEF755FDA563AC621CB0BDE8F087DF
:1025E00040F23C00C2F20000006841F2B021C2F2A9
:1025F00000010A68104408607047000080B503209D
:1026000000F064F80F2000F009F800281CBF01203A
:1026100080BD00F02FF84FF0000080BDB0B504463B
:1026200040F23C00C2F200000068002802BF012511
:102630002846B0BD4FF47A71B1FBF0F040F20801CA
:10264000C2F200010968B1FBF0F000F0B7FE4FF0F4
:1026500001050F2C0CD858B900254FF0FF3021464A
:10266000002200F023F840F24000C2F200000460B3
:102670002846B0BD82B041F25800C4F20200816821
:1026800041F001018160816801F00101019101992E
:10269000016841F080510160006800F080500090B6
:1026A000009802B000F07EB804F04CBF70B514463C
:1026B0000D46064604F058FF2946224603F078FCF2
:1026C00001463046BDE8704004F056BF04F066BFD6
:1026D00047F20001C4F2000170B30A68B0F5007F50
:1026E00058D1D1F8800040F48070C1F8800002F425
:1026F000C060B0F5806F51D10868012262F34A20B2
:10270000086040F20800C2F2000000683222504324
:102710004DF68362C4F21B32A0FB02026FEA9240C4
:102720004A6900281CBF013012F48062F8D1486960
:1027300010F4806F32D02AE00868D1F8802022F4AB
:102740008072C1F8802000F4C060B0F5806F25D1A0
:102750000868012262F34A20086040F20800C2F2D1
:1027600000000068322250434DF68362C4F21B32EF
:10277000A0FB02026FEA92404A6900281CBF0130A8
:1027800012F48062F8D1486910F4806F06D00320FB
:10279000C0B27047022060F34A220A600020C0B233
:1027A0007047000047F20800C4F20000016841F4DD
:1027B00080410160704700002DE9F04182B004467D
:1027C000A078000741F28806C4F2020601D4002076
:1027D00061E056F8300C47F20007C4F2000710F031
:1027E000805F0ED156F8300C40F0805046F8300C27
:1027F00056F8300C00F08050019001984FF001081D
:1028000001E04FF00008386840F480703860FFF74E
:102810003DFC0546386810F4807F06D1FFF736FC92
:10282000401B0228F6D903202CE0B06810F4407059
:1028300021D0216D88420BD0B068B16841F480315D
:10284000B160B16821F48031B16020F44070B060B3
:10285000C00710D0FFF71AFC054641F2883700BFC9
:10286000B06810F0020F06D1FFF710FC401BB84211
:10287000F6D9032006E0B068216D20F440700843CB
:10288000B0600020B8F1010F02BF56F8301C21F0F3
:10289000805146F8301C2178C90705D0316862683C
:1028A00021F00301114331602178890705D5316892
:1028B000A26821F00C01114331602178490705D548
:1028C0003168E26821F03001114331602178090755
:1028D00005D53168226921F0C001114331602178AA
:1028E000C90605D53168626921F440711143316030
:1028F0002178890605D53168A26921F44061114328
:1029000031602178490605D53168E26921F44051EA
:10291000114331602178090605D53168226A21F416
:102920004041114331606178C90705D03168626A5E
:1029300021F4403111433160A178890705D57169CF
:10294000A26A21F00301114371616178890705D5FD
:102950003168E26A21F4402111433160617849070E
:102960000FD53168226B21F4401111433160216B86
:10297000B1F5801F02BF56F87C1C41F4801146F867
:102980007C1C617809070FD53168626B21F4400126
:1029900011433160616BB1F5800F02BF56F87C1CAA
:1029A00041F4801146F87C1C6178C9060FD5316866
:1029B000A26B21F0407111433160A16BB1F1807FB6
:1029C00002BF56F87C1C41F4801146F87C1C6178EB
:1029D00089060FD53168E26B21F040611143316007
:1029E000E16BB1F1006F02BF56F87C1C41F480111D
:1029F00046F87C1C617849060FD53168226C21F0BD
:102A0000406111433160216CB1F1006F02BF56F893
:102A10007C1C41F4801146F87C1C617809060FD5B6
:102A20003168626C21F0405111433160616CB1F149
:102A3000805F02BF56F87C1C41F4803146F87C1C54
:102A4000A178C9070FD03168A26C21F04041114331
:102A50003160A16CB1F1804F02BF56F87C1C41F48B
:102A6000803146F87C1CA17849070FD57169E26C6A
:102A700021F4401111437161E16CB1F5001F02BFF7
:102A800056F87C1C41F4801146F87C1CC0B202B0A0
:102A9000BDE8F0812DE9F04381B00D460446E4B174
:102AA00041F20809C4F20209D9F8F80F00F00F004A
:102AB000A8420CD2D9F8F80F20F00F002843C9F82B
:102AC000F80FD9F8F80F00F00F00A84215D12078C0
:102AD000C00704D14FF0000857E001209AE0606879
:102AE0004BF20046C0F2C446032808D159F8080C3E
:102AF00010F0007F0BD101208CE001208AE059F812
:102B0000081C022814D1880316D4012082E003F0A7
:102B10006DFAB04209D9D9F8000010F0F00F0FD0CB
:102B20002078800701D5A06850B14FF0000810E070
:102B3000480501D401206DE000F0D2F8B042F4D98C
:102B4000D9F80000082161F30710C9F800004FF020
:102B50008008D9F80000616820F003000843C9F834
:102B60000000FFF793FA064641F28837D9F80000D3
:102B7000616800F00C00B0EB810F06D0FFF786FA19
:102B8000801BB842F2D9032044E0206810F0020F05
:102B900007D1B8F1800F1FD1D9F8000020F0F00064
:102BA00018E0400742BFD9F8000040F4E060C9F8DF
:102BB00000002078000741BFD9F80000072161F329
:102BC0000D20C9F80000D9F80000A16820F0F0003D
:102BD00040EA0100C9F80000D9F8F80F00F00F0032
:102BE000A8421BD9D9F8F80F20F00F002843C9F8E4
:102BF000F80FFFF74BFA064641F28837D9F8F80F7D
:102C000000F00F00A84209D0FFF740FA801BB8423D
:102C1000F4D90320C0B201B0BDE8F08320784007AA
:102C200007D5D9F80000E16820F4E0600843C9F84E
:102C300000002078000708D5D9F80000216920F4A9
:102C4000605040EAC100C9F8000000F049F8D9F826
:102C50000010C1F303114AF2A862C0F60002515CF1
:102C600001F01F01C84040F20801C2F200010860F3
:102C700040F24000C2F20000006801B0BDE8F0433D
:102C8000FFF7CCBC40F20800C2F2000000687047B9
:102C900080B5FFF7F7FF41F20801C4F202010968AD
:102CA000C1F302214AF2B862C0F60002515C01F0A1
:102CB0001F01C84080BD000080B5FFF7E3FF41F26F
:102CC0000801C4F202010968C1F3C2214AF2B862E4
:102CD000C0F60002515C01F01F01C84080BD000039
:102CE00041F20C01C4F2020151F8040C00F00C0096
:102CF00042F20042C0F2F4020428104608BF7047B6
:102D000051F8040C00F00C0341F20020C0F27A00EC
:102D1000082B1FD051F8043C03F00C030C2B1CBFF4
:102D2000002070470B6803F00303032B08BF024623
:102D30000868C0F303100130B2FBF0F00A68C2F378
:102D4000062250430968C1F34161022202EB4101AE
:102D5000B0FBF1F0704700002DE9F04381B004466C
:102D60005CB32078C00741F20009C4F2020941F2C5
:102D70000C07C4F2020725D12078800749D42078B7
:102D8000000740F1B1806169D7F88800002900F0A0
:102D9000988040F00100C7F88800FFF777F90546F2
:102DA000D7F8880010F0020F40F09E80FFF76EF910
:102DB000401B0228F4D9032000E00120C0B201B07A
:102DC000BDE8F08357F8040C00F00C0138680829BE
:102DD0004DD00C39B1FA81F1490900F003000338F4
:102DE000B0FA80F040090840012840D06168B1F590
:102DF000803F09D0D9F80000B1F5A02F40F0D7806E
:102E000040F48020C9F80000D9F8000040F4803078
:102E1000D5E057F8040C00F00C013868042932D0D2
:102E20000C39B1FA81F1490900F003000238B0FA17
:102E300080F040090840012825D0E168D9F8000059
:102E4000002900F0958040F48070C9F80000FFF779
:102E50001DF90546D9F8000010F4806F40F09D8000
:102E6000FFF714F9401B0228F4D90320A6E7D9F88C
:102E7000000010F4003F3FF47FAF606800287FF44B
:102E80007BAF01209AE7D9F8000010F4806F03D0DF
:102E9000E068002800F03C8157F8080C216920F018
:102EA000FE4040EA016047F8080C40F24000C2F2E0
:102EB00000000068FFF7B2FB00283FF460AF01207C
:102EC0007CE720F00100C7F88800FFF7DFF805462F
:102ED000D7F8880010F0020F06D0FFF7D7F8401B94
:102EE0000228F5D9032069E72078400740F1BB802C
:102EF000F86C10F0805F0BD1F86C40F08050F864F3
:102F0000F86C00F08050009000984FF0010801E04C
:102F10004FF0000846F20006CFF6FE7659F806009C
:102F200010F4807F14D159F8060040F4807049F8FD
:102F30000600FFF7ABF8054659F8060010F4807F4D
:102F400006D1FFF7A3F8401B0228F5D9032035E787
:102F5000A168012907D0D7F88400052951D140F094
:102F60000400C7F88400D7F8840040F0010050E066
:102F700020F48070C9F80000FFF788F8054600BF0C
:102F8000D9F8000010F4806F3FF4F9AEFFF77EF837
:102F9000411B03200229F3D910E757F8080C2169D7
:102FA00020F0FE4040EA016047F8080CE7E620F414
:102FB0008030C9F80000D9F8000020F48020C9F85A
:102FC00000006668FFF762F805466EB1D9F80000A8
:102FD00010F4003F7FF4D0AEFFF758F8401B642890
:102FE000F4D90320EAE600BFD9F8000010F4003F4E
:102FF0003FF4C2AEFFF74AF8411B03206429F3D91E
:10300000DCE620F00100C7F88400D7F8840020F047
:103010000400C7F88400A668FFF738F805466EB1CB
:1030200041F28836D7F8840010F0020F14D1FFF770
:103030002DF8401BB042F5D90320BFE641F2883697
:10304000D7F8840010F0020F06D0FFF71FF8411BDD
:103050000320B142F4D9B1E6B8F1010F02BFF86C18
:1030600020F08050F864207880062BD5A169D7F82D
:103070008C0099B140F00100C7F88C00FFF706F80A
:10308000054600BFD7F88C0010F0020F1AD1FEF7EA
:10309000FDFF411B03200229F4D98FE620F0010037
:1030A000C7F88C00FEF7F2FF054600BFD7F88C008A
:1030B00010F0020F06D0FEF7E9FF411B03200229A2
:1030C000F4D97BE6E069002800F0B28057F8041CD0
:1030D00001F00C010C2903D101281BD101206DE660
:1030E000D9F8001021F08071C9F80010022847D1EA
:1030F000FEF7CCFF054600BFD9F8000010F0007FB6
:1031000058D0FEF7C3FF411B03200229F4D955E62E
:10311000012053E63868216A00F003028A4240F039
:103120008980616A6FF00F0202EB011100F0F0027A
:103130008A4240F08180A16A00F4FE42B2EB012F86
:103140007CD1E16A00F07842B2EBC16F78D1216B9B
:103150000022CFF6E07202EA0151A1F5001100F45D
:10316000C0028A426ED1616B4FF07E4202EA016179
:1031700001F17E4100F0C060884259D001201DE677
:10318000386820F00300386038684FF6FF71CFF6DA
:10319000EE6108403860FEF779FF0446D9F8000078
:1031A00010F0007F44D0FEF771FF011B03200229BD
:1031B000F4D903E6386804F120064ECE6FF00F050F
:1031C00005EB021248F20C05C0F29F152840084397
:1031D000104340EA0320216B0022CFF6E07202EA9E
:1031E0000151A1F50011084340EAC660616B4FF040
:1031F0007E4202EA016101F17E4108433860D9F85C
:10320000000040F08070C9F80000386840F080701D
:103210003860FEF73BFF0446D9F8000010F0007F4D
:1032200006D1FEF733FF011B03200229F4D9C5E5BF
:103230000020C3E50120C1E50120BFE50120BDE577
:103240000120BBE50120B9E510B50446002C04BF00
:10325000012010BD606A20B10020206104F114003B
:1032600005E06068B0F5827F03D004F11C00002106
:1032700001600020A06294F85D1021B984F85C0020
:10328000204600F065F8022084F85D00206801689F
:1032900021F040010160E1684FF48050B1F5E06F2A
:1032A00088BF002041F40061B1F5706F1CBF0021A0
:1032B000A162D4E900C2A368216902F4827203F416
:1032C000044342EA030201F0020141EA0201626999
:1032D00002F0010241EA0201A26902F4007241EA2D
:1032E0000201E26902F0380241EA0201226A02F0B8
:1032F000800241EA0201A26A02F4005241EA02019C
:10330000CCF80010D4F800C0E268636A616B03F087
:10331000100340EA0300638B03F0040340EA030058
:1033200001F0080140EA010002F4706140EA010086
:10333000CCF804002068C16921F40061C1614FF03C
:10334000000020664FF0010184F85D1010BD000000
:1033500080B586B000210591CDE90311CDE90111B9
:10336000006843F20002C4F20102904201D006B0AC
:1033700080BD41F24C00C4F20200426942F4805226
:103380004261426902F480520092009A026842F05F
:1033900001020260006800F0010000900098E02047
:1033A00001900220CDE9020104910520059001A9B8
:1033B0004FF09040FEF77AFD06B080BD02F040BEAF
:1033C00070470000704700007047000090F83C20F4
:1033D000012A02BF0221C8B27047B0B54FF0010206
:1033E00080F83C20D1E900C3D1E902E248F2FF7441
:1033F000CFF6F07403EA040322F47C522EF47054E6
:1034000042EA040242EA03022CF4772342EA03026E
:103410000B6923F4762342EA03024B6942EA030272
:1034200022F474220B6B23F4702342EA03028B69AB
:1034300042EA0342036842F6004CC4F2010C6345C1
:103440001EBF45F20004C4F20104A34205D043F2BA
:103450000044C4F20104A34203D1CC6922F080529B
:10346000224363451EBF45F20004C4F20104A34297
:1034700005D043F20044C4F20104A34222D1D1E9B1
:10348000083E8C6A0025CFF6F04505EA045422F088
:103490007C72224323F000731A4342EA0E0203684F
:1034A00063451EBF45F20005C4F20105AB4205D0DD
:1034B00043F20045C4F20105AB4203D1C96A22F0D0
:1034C00000520A4301684A64002180F83C10BDE8BC
:1034D000B040C8B27047000070470000704700005D
:1034E0007047000090F83C300222012B6CD010B5E0
:1034F000012380F83C3080F83D2003685A68D3F8F7
:1035000008C042F6004EC4F2010E73451EBF45F2DC
:103510000004C4F20104A34205D043F20044C4F203
:103520000104A34203D14C6822F4700222434FF6F7
:103530008F74CFF6FF5422400C6822435A60036810
:1035400042F6FF32C4F2010293420BDC40F2FF72FA
:10355000C4F20002934210DCB3F1804F26D040F257
:10356000004212E043F6FF72C4F20102934211DC02
:1035700073451BD043F2004214E040F60002C4F24F
:103580000002934212D040F60042C4F2000293427D
:103590000CD011E045F20002C4F20102934205D0C2
:1035A00044F20002C4F20102934205D189682CF072
:1035B0008002114302689160012180F83D100022D1
:1035C00080F83C20BDE81040D0B270477047000042
:1035D00010B50446002C04BF012010BD94F83D0036
:1035E00028B9002084F83C00204600F023F802208F
:1035F00084F83D002068211D02F092FD012084F82E
:10360000480084F83E0084F83F0084F8400084F8C5
:10361000410084F8420084F8430084F8440084F8B0
:10362000450084F8460084F8470084F83D000020F7
:1036300010BD000080B584B0016841F25800C4F2AA
:10364000020044F20002C4F2010291421BD041F296
:103650000002C4F20002914220D040F60042C4F2BF
:103660000002914218D1016841F008010160006830
:1036700000F0080003900398322000210022FFF799
:1036800015F8322019E0816841F48031816080684A
:1036900000F480300190019804B080BD016841F0D1
:1036A00010010160006800F01000029002983620BE
:1036B00000210022FEF7FAFF362004B0BDE880406A
:1036C000FEF7F2BF90F83D1001291EBF0121084608
:1036D00070474FF0020180F83D100168CA6842F05F
:1036E0000102CA60016842F6FF32C4F2010291424F
:1036F0000BDC40F2FF72C4F20002914214DCB1F123
:10370000804F2AD040F2004216E043F6FF72C4F226
:103710000102914215DC42F60042C4F201029142DC
:103720001BD043F2004214E040F60002C4F2000253
:10373000914212D040F60042C4F2000291420CD0F5
:1037400017E045F20002C4F20102914205D044F2B2
:103750000002C4F2010291420BD10168896807227C
:10376000C0F201020A400021062A18BFB2F5803FCC
:1037700005D00068016841F00101016000210846A0
:103780007047000010B50B46044694F83C10022028
:10379000012969D0012184F83C1084F83D0020689B
:1037A00081688822CFF6CE72114081601968B1F528
:1037B000005F0BDA3F291FDD5F292DDD602955D021
:1037C00070295BD0B1F5805F47D078E02F20C0F240
:1037D0001000814216DD4F20C0F21000814227DD2B
:1037E0005020C0F2100081421EBF6020C0F21000C5
:1037F00081422FD0702029E01F2920DC51B31029ED
:1038000028D05CE0B1F1101F1EDAB1F5005F42D0A4
:10381000B1F5801F1ED052E0402948D050294ED12A
:103820005968DA68206802F0D5FE2068502112E05D
:103830003020C0F2100081420CD0402006E0202948
:1038400018BF302906D03AE004D02020C0F2100082
:10385000814234D1206802F01BFD0020012184F850
:103860003D10002184F83C10C0B210BD5968DA68E0
:10387000206802F0C1FE20686021ECE7D3E9012155
:10388000DB68206802F0FAFC20688068216840F05C
:1038900077008860E1E7D3E90121DB68206802F066
:1038A000EDFC2068816841F480418160D5E759686A
:1038B000DA68206802F08EFE20684021CBE7012004
:1038C000CCE700002DE9F0470D460446002C04BF6C
:1038D0000120BDE8F08794F83D0028B9002084F865
:1038E0003C00204600F050F8022084F83D0020689B
:1038F00081684BF6F872CFF6FE7211408160206845
:10390000211D02F00DFC206880682168D1F8189014
:103910002268D2F820C0D5E9003E05F1080A9AE8ED
:103920004404D5E90581EF6918432B6A2568A8602E
:103930004FF6FF7029EA0000304342EA01214FF6BA
:10394000FC429143084340EA072040EA0A1040EA5B
:103950000330216888612CF0AA0040EA0E0040EA9A
:10396000081021680862012084F8480084F83E00AD
:1039700084F83F0084F8440084F8450084F83D0052
:103980000020BDE8F087000080B586B000210591D9
:10399000CDE90311CDE90111026841F24C01C4F2F5
:1039A000020140F20040C4F6000040F2FF73C4F28E
:1039B00000039A4224DCB2F1804F57D040F200431A
:1039C000C4F200039A4240F08F80CA6842F00202BB
:1039D000CA60CA6802F002020092009A0A6842F0C5
:1039E00002020A60096801F0020100910099302189
:1039F0000191022102910022CDE90322059151E0BB
:103A000040F60003C4F200039A4250D042F600434D
:103A1000C4F201039A4267D14A6942F400624A61E2
:103A20004A6902F400620092009A0A6842F01002A9
:103A30000A60096801F01001009100994FF42061BB
:103A40000191022102910022CDE90322059100F5A6
:103A5000406001A9FEF72AFA1A200F210022FEF782
:103A600025FE1A20FEF720FE06B080BDCA6842F08F
:103A70000102CA60CA6802F001020092009A0A6854
:103A800042F008020A60096801F0080100910099FB
:103A900018210191022102910022CDE90322059112
:103AA00000F5006001A9FEF701FA06B080BDCA6802
:103AB00042F00402CA60CA6802F004020092009A4E
:103AC0000A6842F002020A60096801F002010091EE
:103AD0000099C0210191022102910022CDE9032227
:103AE000059101A9FEF7E2F906B080BD10B50446C4
:103AF00094F83E3094F83F2094F844E094F845C0A0
:103B0000012004290BD0A9B9012B08BFBEF1010F78
:103B100037D1022084F83E0084F8440026E0012AD0
:103B200008BFBCF1010F2CD1022084F83F0084F8BB
:103B3000450018E0012B08BF012A22D1BEF1010F78
:103B400008BFBCF1010F1CD1022084F83E0084F8AC
:103B50003F0084F8440084F8450039B12068002112
:103B6000012202F07BFB2068042101E02068002193
:103B7000012202F073FB2068016841F0010101603D
:103B8000002010BD7047000010B504462068016990
:103B900011F0020F1CBFC16811F0020F15D06FF0B9
:103BA00002010161012020772068806910F0030F75
:103BB00003D02046FFF7E6FF05E0204600F040F97D
:103BC000204600F015FA002020772068016911F0E6
:103BD000040F1CBFC16811F0040F15D06FF0040171
:103BE0000161022020772068806910F4407F03D0B3
:103BF0002046FFF7C7FF05E0204600F021F92046E8
:103C000000F0F6F9002020772068016911F0080F14
:103C10001CBFC16811F0080F15D06FF008010161D9
:103C2000042020772068C06910F0030F03D02046DD
:103C3000FFF7A8FF05E0204600F002F9204600F05B
:103C4000D7F9002020772068016911F0100F1CBF00
:103C5000C16811F0100F15D06FF01001016108203C
:103C600020772068C06910F4407F03D02046FFF71A
:103C700089FF05E0204600F0E3F8204600F0B8F99F
:103C8000002020772068016911F0010F1CBFC16876
:103C900011F0010F05D06FF001010161204600F025
:103CA0004DFA2068016911F0800F1CBFC16811F046
:103CB000800F05D06FF0800101612046FFF782FB85
:103CC0002068016911F4807F1CBFC16811F0800F6A
:103CD00005D06FF4807101612046FFF771FB206809
:103CE000016911F0400F1CBFC16811F0400F05D0F1
:103CF0006FF040010161204600F046FA206801693A
:103D000011F0200F1CBFC16811F0200F05D06FF01B
:103D1000200101612046FFF757FB2068016911F47B
:103D2000801F1CBFC16811F4801F05D06FF4801183
:103D300001612046FFF7D2FB2068016911F4001FE2
:103D40001CBFC16811F4001F05D06FF400110161A0
:103D50002046FFF7C1FB2068016911F4800F1CBFEA
:103D6000C16811F4800F05D06FF480010161204615
:103D7000FFF7B6FB2068016911F4000F1CBFC16892
:103D800011F4000F00D110BD6FF400010161204655
:103D9000BDE81040FFF71ABC80B586B00021059140
:103DA000CDE90311CDE90111036841F24C0CC4F2D5
:103DB000020C40F20040C4F6000044F20002C4F2DB
:103DC0000102934222D043F20041C4F201018B422E
:103DD00034D1DCF8001041F00401CCF80010DCF81C
:103DE000001001F00401009100994FF470710191ED
:103DF000022102910021CDE903110421059100F572
:103E0000806001A9FEF752F806B080BDDCF8002002
:103E100042F00202CCF80020DCF8002002F002029E
:103E20000092009A4FF4404201920222CDE9022111
:103E300004910121059101A9FEF738F806B080BD73
:103E400070470000B0B50D46044694F83C000128C8
:103E500002BF0220C0B2B0BD4FF0010084F83C00A8
:103E60004FEAB201052900F27380DFE801F0031583
:103E70002638495B2068294602F016FA20688169D5
:103E800041F0080181612068816921F004018161AC
:103E900029692068183057E02068294602F046FA60
:103EA0002068816941F4006181612068816921F4A1
:103EB000806181612068183044E02068294602F062
:103EC00085FA2068C16941F00801C1612068C169B3
:103ED00021F00401C161296920681C3034E02068A8
:103EE000294602F0C3FA2068C16941F40061C1614A
:103EF0002068C16921F48061C16120681C3021E023
:103F00002068294602F002FB2068016D41F008019B
:103F100001652068016D21F00401016529692068AF
:103F2000503011E02068294602F022FB2068016D24
:103F300041F4006101652068016D21F48061016533
:103F4000206850302969090202681143016000208D
:103F5000002184F83C10C0B2B0BD000010B504468A
:103F6000002C04BF012010BD94F83D0028B90020AA
:103F700084F83C00204600F023F8022084F83D003D
:103F80002068211D02F0CCF8012084F8480084F854
:103F90003E0084F83F0084F8400084F8410084F833
:103FA000420084F8430084F8440084F8450084F813
:103FB000460084F8470084F83D00002010BD000052
:103FC000006843F20041C4F20101884218BF704703
:103FD00081B041F26000C4F20200016841F4005176
:103FE0000160006800F400500090009801B0704734
:103FF00070470000B0B5044649B10A1F01234FEADB
:10400000B2050520042D38BF03EBB20000E000200C
:10401000204490F83E0001281CBF0120B0BD61B1D2
:10402000081F4FEAB00003280BD8DFE800F0020EAB
:104030001216022084F83F0012E0022084F83E00AD
:104040000EE0022084F843000AE0022084F84000D9
:1040500006E0022084F8410002E0022084F84200D9
:1040600020680125012202F0F9F82068A0F18041C2
:10407000A1F596314FEAB121072957D805FA01F188
:1040800011F0E50F52D02068416C41F400414164C9
:10409000206842F6FF31C4F2010188420BDC40F295
:1040A000FF71C4F20001884214DCB0F1804F2AD0C5
:1040B00040F2004116E043F6FF71C4F2010188426C
:1040C00015DC42F60041C4F2010188421BD043F2E4
:1040D000004114E040F60001C4F20001884212D011
:1040E00040F60041C4F2000188420CD017E045F2CE
:1040F0000001C4F20101884205D044F20001C4F27B
:10410000010188420BD1206880680721C0F20101BB
:1041100001400020062918BFB1F5803F05D0206876
:10412000016841F0010101600020B0BD45F20001CD
:10413000C4F201018842ABD1A5E7000010B50446E6
:1041400040F65852C2F2000292F90010D2E902037E
:10415000401843EBE171C2E9020114220023FCF78D
:1041600057F840F61800C2F20000844208BF52EA35
:10417000030000D010BD40F65850C2F20000BDE868
:10418000104005F033BC00007047000090F880102C
:10419000012902BF0221C8B270474FF02401C0F8C4
:1041A000841001680A680B6823F001030B604FF06C
:1041B00000014166036822F000521A604FF02002AD
:1041C000C0F8842080F88010C8B2704770470000A3
:1041D00070470000B0B5044694F88000012802BF83
:1041E0000220C0B2B0BD4FF0010084F880004FF053
:1041F0002400C4F8840020680568026822F00102E7
:1042000002602068826822F0606241EA02018160F7
:10421000204602F009FA206805604FF02000C4F83B
:1042200084004FF0000084F88000C0B2B0BD0000F0
:10423000B0B5044694F88000012802BF0220C0B245
:10424000B0BD4FF0010084F880004FF02400C4F8A6
:10425000840020680568026822F00102026020687C
:10426000826822F0604241EA02018160204602F049
:10427000DBF9206805604FF02000C4F884004FF09F
:10428000000084F88000C0B2B0BD0000704700009C
:1042900070470000B0B50446D4F88410D4F88850B4
:1042A0002068806821291AD110F0800017D000BF43
:1042B000206850E8020F216820F0800041E80202E7
:1042C000002AF5D1A06F38B1FDF72EFC20B1A06F08
:1042D000FDF7A2FC20281FD0204602F037FB206803
:1042E00081680020222D21D111F040011ED000BF95
:1042F000206850E8020F216820F0400041E80202E7
:10430000002AF5D1E06F68B1FDF70EFC50B1E06F07
:10431000FDF782FC202805D11020C4F88C00032072
:10432000C0B2B0BD204602F0D1FA0020C0B2B0BD8C
:1043300070470000B0B504462268D16940F62F00EE
:1043400001EA00031068D2F808E0202B0DD100F03C
:1043500020020EF080531A4307D0216F002900F08D
:1043600066812046BDE8B040084740F60F020A408B
:1043700000F09B8040F22012C0F200420240012374
:10438000C1F200030EEA030C52EA0C0200F08D8029
:10439000CA0718BF10F4807208D022680123136284
:1043A000D4F88C2042F00102C4F88C200EF00103F6
:1043B0008A0709D543B1226802251562D4F88C20FA
:1043C00042F00402C4F88C204A0709D543B12268A0
:1043D00004231362D4F88C2042F00202C4F88C202B
:1043E0000A070DD500F0200252EA0C0208D022681C
:1043F00008231362D4F88C2042F00802C4F88C2001
:104400000A050CD510F0806209D022684FF40063D1
:104410001362D4F88C2042F02002C4F88C20D4F827
:104420008C20002A00F0038111F020011EBF00F053
:1044300020000EF0805150EA010004D0216F0029C5
:104440001CBF20468847D4F88C0000F02800216863
:10445000896801F04001084300F0E380204602F043
:1044600035FA2068806810F0400F00F0CE8000BF61
:10447000206850E8020F216820F0400041E8020265
:10448000002AF5D1E06F002800F0BF8046F2C97124
:10449000C0F600018163FDF77DFB002800F0C780B6
:1044A000E06F816BBDE8B040084701EA0003DA061F
:1044B000E26E40D5012A3ED12068102101622068B9
:1044C000806810F0400F44D1B4F85C00B4F85E107E
:1044D000B4F85E20002A1EBF401A81B2002900F005
:1044E000A68000BF206850E8000F226820F490707A
:1044F00042E80003002BF5D14FF6FE70CEF6FF70B8
:10450000226852E8022F0240236843E80225002D6A
:10451000F6D12020C4F888000020E066206700BFA4
:10452000206850E8000F226820F0100042E80003E5
:10453000002BF5D157E0CA025AD51EF4800257D09D
:1045400020684FF4801101622046BDE8B040FFF7BB
:104550009FBEE06F0068406881B2002967D0B4F860
:104560005C20914263D2A4F85E00E06F00680068AE
:1045700010F0200F31D100BF206850E8000F2168F3
:1045800020F4807041E80002002AF5D1206850E84C
:10459000020F216820F0010041E80202002AF5D153
:1045A000206850E8020F216820F0400041E8020234
:1045B000002AF5D12020C4F888000020E06600BF62
:1045C000206850E8000F216820F0100041E8000248
:1045D000002AF5D1E06FFDF7A7FAB4F85C00B4F853
:1045E0005E10401A81B22046BDE8B040FFF7EEBD34
:1045F0000A060FD500F080020EF400052A4309D008
:10460000616F00297FF4ADAE11E02046BDE8B040F7
:10461000FFF78EBE5A060BD52046BDE8B04002F02B
:1046200083B92046FFF784FE0020C4F88C00B0BD9B
:104630000A0207D510F0804204D02046BDE8B04001
:10464000FFF724BEC901F2D5B0F1FF3FC8BFB0BD2E
:104650002046BDE8B040FFF7BBBD000010B50446E2
:10466000ACB1D4F8840028B9002084F8800020463A
:1046700000F02AF82420C4F884002068016821F0A2
:1046800001010160204602F085FC012801D10120D2
:1046900010BDA06A00281CBF204601F0F5FF20686D
:1046A000416821F4904141602068816821F02A012D
:1046B00081602068016841F0010101602046BDE889
:1046C000104002F047B800002DE9F0479CB00446C6
:1046D00000201B90CDE91900CDE9170002A8542154
:1046E000FBF7CEFD206840F20808C4F2020841F250
:1046F0004C06C4F2020640F60009C4F6000944F66E
:10470000FF31C4F20001884200F3968044F2004178
:10471000C4F20001884200F00E8144F60001C4F2A8
:104720000001884240F0778104200290002705971D
:1047300002A8FEF741F8002818BFFCF7A1FCF068BA
:1047400040F48020F060F06800F48020019001982F
:10475000306840F010003060306800F010000190C8
:104760000198306840F002003060306800F00200CC
:10477000019001984FF4004017904FF0020ACDE9E4
:1047800018A71A974FF007051B9509F5006017AE9B
:104790003146FDF78BFB4FF48060CDE9170ACDE978
:1047A00019771B95A9F580603146FDF77FFB08F16D
:1047B000500040F2E045C2F2000528604FF01C00B6
:1047C000C5E90107EF604FF080062F62C5E9067763
:1047D000C5E904672846FDF791FA002818BFFCF7E1
:1047E0004FFCE567AC6208F1640040F24055C2F24C
:1047F000000528604FF01D0068604FF01000A860B1
:104800004FF00000C5E90306C5E90700C5E905004A
:104810002846FDF773FA002818BFFCF731FCA5679E
:10482000AC624FF027004FF000014FF00002FDF79F
:104830003DFF4FF0270060E143F60001C4F20101A3
:10484000884200F0EB8044F60041C4F20001884247
:1048500040F0E180082002900027069702A8FDF7AB
:10486000ABFF002818BFFCF70BFCF06840F40020F9
:10487000F060F06800F4002001900198306840F08A
:1048800004003060306800F00400019001984FF49B
:10489000406017904FF00200CDE918071A974FF0CB
:1048A00005001B9017A94846FDF700FB08F17800AA
:1048B00040F2A025C2F2000528604FF01E00C5E9B5
:1048C0000107EF604FF080062F62C5E90677C5E962
:1048D00004672846FDF712FA002818BFFCF7D0FB42
:1048E000E567AC6208F18C0040F20035C2F20005C9
:1048F00028604FF01F0068604FF01000A8604FF074
:104900000000C5E90306C5E90700C5E9050028461A
:10491000FDF7F4F9002818BFFCF7B2FBA567AC62FD
:104920004FF034004FF000014FF00002FDF7BEFEE3
:104930004FF03400E1E0022502950027049702A819
:10494000FDF73AFF002818BFFCF79AFBF06840F427
:104950000030F060F06800F4003001900198306899
:1049600040F001003060306800F0010001900198D3
:104970004FF00C0017A9A1C11A974FF007001B9028
:1049800017A94FF09040FDF791FA08F1280040F286
:104990002045C2F2000528604FF01A00C5E9010762
:1049A000EF604FF080062F62C5E90677C5E904671E
:1049B0002846FDF7A3F9002818BFFCF761FBE5675F
:1049C000AC6208F13C0040F28045C2F2000528606C
:1049D0004FF01B0068604FF01000A8604FF000001F
:1049E000C5E90306C5E90700C5E905002846FDF746
:1049F00085F9002818BFFCF743FBA567AC624FF0B0
:104A000026004FF000014FF00002FDF74FFE4FF07F
:104A10002600FDF749FE1CB0BDE8F087012002909A
:104A20000027039702A8FDF7C7FE002818BFFCF770
:104A300027FB706940F480407061706900F4804029
:104A400001900198306840F004003060306800F058
:104A50000400019001984FF0300017904FF00200D1
:104A6000CDE918071A974FF007001B9017A9484681
:104A7000FDF71CFA40F26035C2F20005C5F800806F
:104A80004FF01800C5E90107EF604FF080062F6274
:104A9000C5E90677C5E904672846FDF72FF9002820
:104AA00018BFFCF7EDFAE567AC6208F1140040F2BC
:104AB000C035C2F2000528604FF0190068604FF061
:104AC0001000A8604FF00000C5E90306C5E9070023
:104AD000C5E905002846FDF711F9002818BFFCF7C5
:104AE000CFFAA567AC624FF025004FF000014FF000
:104AF0000002FDF7DBFD4FF02500FDF7D5FD1CB0F2
:104B0000BDE8F087D0F88830202B31D1012300296F
:104B100018BF002A2DD090F88030012B02BF02234D
:104B2000D8B2704780B54FF0010380F880304FF065
:104B30000003C366D0F800C048F20003C4F20003CB
:104B40009C451CBFDCF8043013F4000F0CD000BFF0
:104B5000036853E8003FD0F800C043F080634CE89E
:104B6000003EBEF1000FF3D1BDE8804002F06CBB07
:104B70000223D8B270470000D0F88830202B08D12B
:104B80000123002918BF002A2BD090F88030012B78
:104B900002D10223D8B2704780B5012380F880305B
:104BA0000023C366D0F800C048F20003C4F200033B
:104BB0009C451CBFDCF8043013F4000F0CD000BF80
:104BC000036853E8003FD0F800C043F080634CE82E
:104BD000003EBEF1000FF3D102F08AFB0023BDE8D6
:104BE0008040D8B27047000070B5044640F6FC0023
:104BF000C2F20000844234D02068C16911F0100F65
:104C000004D0102101622046FFF744FB40F68C10CF
:104C1000C2F20000844239D040F61C20C2F20000EB
:104C2000844249D040F6AC20C2F20000844218BF52
:104C300070BD40F6FC00C2F2000052A104F056FA2A
:104C400040F6AC20C2F2000041F2AE11C2F2000107
:104C500004F05AFC40F2A020C2F200000068406854
:104C600070BD40F65755C2F20005287802283BD0A7
:104C700001285FD000286FD140F65450C2F20000E6
:104C80000078432804BF0120287065E040F6FC004E
:104C9000C2F200003EA104F029FA40F68C10C2F2E4
:104CA000000040F6B071C2F2000104F02DFC40F2A9
:104CB0002040C2F2000014E040F6FC00C2F2000006
:104CC00030A104F013FA40F61C20C2F2000041F2B9
:104CD000AF01C2F2000104F017FC40F2E040C2F262
:104CE00000000068406870BD40F65450C2F20000F9
:104CF000007840F65652C2F2000211780D2818BF13
:104D00000A2835D140F64050C2F200000026465431
:104D100040F65551C2F200010C7804F0DDFF51EC71
:104D2000100BFBF790FC00EE100A204601F026FE67
:104D30002E7011E040F65450C2F20000007840F6A8
:104D40005551C2F20001087040F65650C2F2000000
:104D5000002101700220287040F6FC00C2F2000021
:104D600040F65451C2F200010122FFF705FF70BD69
:104D70001229F1D84B1C137040F64052C2F20002C7
:104D80005054E9E775617274332069646C650A00F8
:104D900075617274322069646C650A0070470000A6
:104DA0002DE9F04782B0994616460D460446D4F8E0
:104DB000840020280AD10120002D18BF002E06D023
:104DC00094F88000012806D1022000E00220C0B241
:104DD00002B0BDE8F087012084F880004FF0000A9F
:104DE000C4F88CA02120C4F88400FDF74FF9804658
:104DF000A4F85460A4F85660A068B0F5805F07D1AD
:104E00002769002F4FF000060CBF2E462F4601E009
:104E10002F46002684F880A005E000BFB4F85600B5
:104E20000138A4F85600B4F85600B0B1CDF800909F
:104E3000204680210022434602F0F8FAC0B92068DB
:104E400027B117F8011B8162E8E700BF36F8021BA3
:104E50006FF35F2181620027E0E7CDF800902046E4
:104E600040210022434602F0E1FA18B10320AEE7E8
:104E70000320ACE72020C4F884000020A7E700004E
:104E800070470000FEE7000040F2A050C2F20000B0
:104E9000FDF754B901688A6912F0020F1CBF0022A5
:104EA0008A620068816911F0010F02BF816941F0D7
:104EB00001018161704700002DE9F04F81B0164675
:104EC0000D4604462068816911F0100F02D10025BB
:104ED000002065E01021C1612068806910F0200F7A
:104EE00059D14FF000084FF0010B6F1C4FF0000933
:104EF0004FF0000A2FB1FDF7C9F84DB1801BA84251
:104F000006D82068806949EA5010C007F2D03FE017
:104F10002068426894F842308169202B1AD012F43C
:104F2000804217D111F4004114D0416841F480410E
:104F30004160FDF7ABF806460CE0606C40F02000E5
:104F40006064202084F8410084F8428084F8408026
:104F50004FF0010A2068806910F0200F05D1FDF79D
:104F600095F8801B1A28F5D3E7E75FFA8AF9B9F1BB
:104F7000000FB9FA89F018BF4FF001094FEA501B32
:104F80002068806910F0200F08BFB9F1000FB1D080
:104F90005FEACB7002D020682021C1610120042586
:104FA0002268916911F4807F1FBF4FF48070D06137
:104FB00045F0010501204A0506D520684FF48062BE
:104FC000C26145F008050120890506D4002802BF0A
:104FD000002001B0BDE8F08F05E020684FF40071BB
:104FE000C16145F002052046FFF754FF2068416883
:104FF0004EF60002CFF6006211404160606C28431B
:105000006064202084F84100002084F8420084F885
:105010004000012001B0BDE8F08F00002DE9F04113
:1050200082B01E461546044642F20000C8F2000057
:105030000090F2B22046002300F028F8DDE908874E
:10504000204641463A4600F0A1F818B1012002B0CE
:10505000BDE8F081012E09D02068290A816220462E
:1050600041463A4600F092F80028EFD12068E9B2B4
:1050700081620097204640210022434600F022F83A
:10508000002818BF012002B0BDE8F08110B5DDF89E
:1050900008C04FF4806E0EEA5C5E8EF07C4E8EF49B
:1050A0001C4E0068446804EA0E046FF39F21194304
:1050B00041EA024141EA0C0121F0004121434160F3
:1050C00010BD00002DE9F04381B01D4616460F4685
:1050D0008146D9F8000080693840C01BB0FA80F0E2
:1050E0004009B04214D1DDF820806C1C34B1FCF7CB
:1050F000CDFF8DB1A0EB0800A8420DD8D9F8000073
:1051000080693840C01BB0FA80F04009B042EDD051
:10511000002001B0BDE8F083D9F8440040F0200041
:10512000C9F84400202089F84100002089F8420095
:1051300089F84000012001B0BDE8F08370B5154644
:105140000E4604462068806910F0200F1CBF002026
:1051500070BD204631462A46FFF7AEFE00281CBF30
:10516000012070BDFCF792FF16B1401BB042E9D997
:10517000606C40F020006064202084F84100002032
:1051800084F8420084F84000012070BDF0B581B081
:1051900015460E4604462068806910F0020F13D1B0
:1051A000771C00BF204631462A46FFF785FED0B95E
:1051B0002FB1FCF76BFF56B1401BB04207D82068F7
:1051C000806910F0020FEDD0002001B0F0BD606CDE
:1051D00040F020006064202084F84100002084F822
:1051E000420084F84000012001B0F0BD81684FF614
:1051F000C072C7F6FF72114041F002018160704732
:1052000081684FF6C072C5F6FF7211408160704729
:1052100081684FF6C072C7F6FF72114041F001017C
:105220008160704781684FF6C072C6F6FF72114008
:1052300041F0805181607047806800F0E0707047F5
:10524000806800F460407047806800F01F0070477D
:1052500000EB8100006E00F0F84070478068C0F3FA
:10526000C000704781684FF6C072C7F6FF721140E8
:1052700041F02001816070478068C0F34070704742
:105280008068C0F340007047806800F001007047FC
:10529000806800F0010070478068C0F300707047BC
:1052A0008068C0F3800070478068C0F3800070475A
:1052B000C06800F44060B0FA80F040097047000018
:1052C00001F01F0C1F2303FA0CF3C1F3012100EBC3
:1052D0008100016B9943C2F3846202FA0CF211431C
:1052E0000163704781684FF6C072C7F6FF721140C4
:1052F00041F004018160704781684FF6C072C7F6C3
:10530000FF72114041F0100181607047C1F3045CED
:10531000072303FA0CF3C1F3406100EB81004169FC
:10532000994302FA0CF21143416170474FF6FF7C3A
:10533000C0F2070C0023C4F27F039A4207D101EAAE
:105340000C01D0F8B0201143C0F8B010704741F004
:10535000784141F0FF6181EA0C01D0F8B0201140A2
:10536000C0F8B01070470000826822F47C1211432C
:1053700081607047826822F0E0721143816070475B
:1053800002F0F8421A4300EB8100016E4FF2000375
:10539000C0F2FF331940114341F0004101667047EC
:1053A00000EB8100016E21F000711143016670472E
:1053B00000EB8100016E21F080711143016670479E
:1053C00000EB8100016E21F0004101667047000092
:1053D000426922F0004211434161704710B58CB020
:1053E00000240B94CDE90944CDE90744CDE90544F7
:1053F000CDE90344CDE9014440F25400C2F200007B
:1054000040F20041C5F200014FF4403210234FF04A
:10541000040C80E81E00C0E90444C0F818C00477FA
:1054200044770121016280F82440C0E90B4480F8F0
:105430003840C46380F84040FCF77AF8002818BF71
:10544000FBF71EFE099440F25400C2F2000009A9C5
:10545000FBF71CFE002818BFFBF712FE40F6000009
:10546000C2F6306001904FF0060002904FF000004D
:1054700003904FF07F0104914FF00401CDE9051036
:1054800040F25400C2F2000001A9FBF79DFE002883
:1054900018BFFBF7F5FD0CB010BD000080B584B05F
:1054A00041F24800C4F20200016841F004010160C9
:1054B000016801F0040103910399016841F00101C1
:1054C0000160016801F0010102910299016841F057
:1054D00002010160006800F00200019001980B20B9
:1054E00000210022FDF7E2F80B20FDF7DDF80C208B
:1054F00000210022FDF7DAF80C20FDF7D5F80D2089
:1055000000210022FDF7D2F80D20FDF7CDF80E2086
:1055100000210022FDF7CAF80E20FDF7C5F80F2084
:1055200000210022FDF7C2F80F20FDF7BDF8102082
:1055300000210022FDF7BAF81020FDF7B5F8112080
:1055400000210022FDF7B2F81120FDF7ADF8382058
:1055500000210022FDF7AAF83820FDF7A5F8392030
:1055600000210022FDF7A2F83920FDF79DF83A202E
:1055700000210022FDF79AF83A20FDF795F83B202C
:1055800000210022FDF792F83B20FDF78DF83C202A
:1055900000210022FDF78AF83C20FDF785F8602005
:1055A00000210022FDF782F8602004B0BDE88040B1
:1055B000FDF77AB82DE9F04F85B041F24C00C4F206
:1055C0000200016841F010010160016801F0100162
:1055D00000910099016841F004010160016801F047
:1055E000040100910099016841F020010160016807
:1055F00001F0200100910099016841F00101016072
:10560000016801F0010100910099016841F0020177
:105610000160016801F0020100910099016841F008
:1056200008010160006800F008000090009840F256
:105630000048C4F6000808F5406440F2C35B002748
:10564000204640F2C3510022FCF718FD08F5806A9D
:10565000504643F20F010022FCF710FD08F5805977
:1056600048464FF400710022FCF708FD4FF09040CF
:1056700041F611410022FCF701FD40460E210022B7
:10568000FCF7FCFC08F500652846E2210022FCF747
:10569000F5FC2C2000900220CDE90107039705209E
:1056A00004906E4620463146FCF700FCCDF800B071
:1056B0004FF0010BCDE901B7039720463146FCF7C7
:1056C000F5FB43F20F00CDE9000BCDE90277504620
:1056D0003146FCF7EBFB4FF40070CDE9000BCDE950
:1056E000027748463146FCF7E1FB41F61140CDE92F
:1056F000000BCDE902774FF090403146FCF7D6FB26
:105700000E20CDE9000BCDE9027740463146FCF78B
:10571000CDFB4FF400608DE8810840463146FCF730
:10572000C5FBE220CDE9000BCDE9027728463146E2
:10573000FCF7BCFB04208DE8810828463146FCF7C5
:10574000B5FB05B0BDE8F08F80B540F2A050C2F2C5
:10575000000045F20041C4F20001016046F2FF3151
:10576000C0F2E0014160002181600122C0E907111F
:10577000C0E90511C0E90321FCF7ECFC002818BFC3
:10578000FBF77EFC40F2A050C2F200004FF0000197
:10579000FCF782FC002818BFFBF772FC40F2A05017
:1057A000C2F200004FF00001FCF7A0FC00281CBF73
:1057B000BDE88040FBF764BC80BD000080B540F2CE
:1057C000EC50C2F2000045F60001C4F20001016095
:1057D00046F2FF31C0F2E001416000218160012208
:1057E000C0E90711C0E90511C0E90321FCF7B2FCCB
:1057F000002818BFFBF744FC40F2EC50C2F2000056
:105800004FF00001FCF748FC002818BFFBF738FCFC
:1058100040F2EC50C2F200004FF00001FCF766FCD1
:1058200000281CBFBDE88040FBF72ABC80BD0000FB
:1058300080B540F23860C2F2000043F20001C4F2C9
:10584000010101604FF482714160002181604FF4D9
:105850004072C0E9032141614FF400728162C0E9E6
:105860000811C0E906210722C0E90B210821416384
:10587000FDF7EAFC00281CBFBDE88040FBF700BC38
:1058800080BD000010B59CB00024CDE91A44CDE9DC
:105890001844CDE91644CDE91444CDE91244CDE9CC
:1058A0001044CDE90E4401A83421FAF7E9FC40F296
:1058B000E860C2F2000044F20001C4F201013B22A0
:1058C0004CF24F334FF0800C80E81600C0E90334EF
:1058D000C0E9054CFDF77CFE002818BFFBF7D0FBA4
:1058E0004FF48050189040F2E860C2F2000018A90E
:1058F000FDF748FF002818BFFBF7C2FB40F2E86045
:10590000C2F20000FEF72AFB002818BFFBF7B8FB25
:105910004FF000041594179440F2E860C2F20000C2
:1059200015A9FDF7DFFD002818BFFBF7A9FB4FF015
:1059300060001494CDE91244CDE91044CDE90E0481
:1059400040F2E860C2F200000EA94FF00002FEF73C
:1059500079FA002818BFFBF793FB40F2E860C2F227
:1059600000000EA94FF00402FEF76CFA002818BFE1
:10597000FBF786FB4FF000000590CDE90300CDE971
:1059800001004FF40051CDE906100D9040F2E8609F
:10599000C2F2000001A9FDF719FD002818BFFBF7AE
:1059A0006FFB40F2E860C2F20000FEF7F5F91CB0B0
:1059B00010BD000010B58CB000240294CDE9004465
:1059C00040F29C60C2F2000042F60041C4F20101C4
:1059D0004FF6FF72C0E90014C0E90242C0E9044476
:1059E00084610321CDE903140121CDE90514CDE93A
:1059F0000744CDE909140B9403A9FDF763FF0028C0
:105A000018BFFBF73DFBCDE90044029440F29C60D7
:105A1000C2F200006946FDF765FD002818BFFBF7DC
:105A20002FFB0CB010BD000010B58CB00024029408
:105A3000CDE9004440F23470C2F200004FF08041E2
:105A40004FF0FF32C0E90014C0E9024204618461F2
:105A50000321CDE903140121CDE90514CDE9074463
:105A6000CDE909140B9403A9FDF72CFF002818BFFA
:105A7000FBF706FB0094029440F23470C2F200007F
:105A80006946FDF72FFD002818BFFBF7F9FA0CB0A7
:105A900010BD000010B58CB000240294CDE9004484
:105AA00040F28070C2F2000040F20041C4F20001F6
:105AB0004FF6FF72C0E90014C0E90242046184613C
:105AC0000321CDE903140121CDE90514CDE90744F3
:105AD000CDE909140B9403A9FDF7F4FE002818BFC3
