:020000040800F2
:1000000008170020ED010008656500081557000875
:1000100061650008A10F0008D97500080000000004
:100020000000000000000000000000006D650008F6
:1000300041100008000000006965000871650008B3
:10004000070200080702000807020008070200086C
:10005000070200080702000807020008070200085C
:10006000070200080702000807020008A50F0008A1
:10007000B10F0008BD0F0008C90F0008D50F000818
:10008000E10F0008ED0F0008070200080702000852
:10009000070200080702000807020008070200081C
:1000A0000702000807020008896500080702000827
:1000B0000702000807020008070200081957000895
:1000C00007020008070200080702000807020008EC
:1000D00007020008B5750008C1750008CD75000855
:1000E00007020008070200080702000807020008CC
:1000F00007020008070200080702000807020008BC
:1001000007020008070200089565000807020008BA
:10011000F566000807020008A1650008070200084C
:1001200005100008111000081D1000082910000813
:10013000351000080702000807020008070200083F
:10014000070200080702000807020008070200086B
:10015000070200080702000807020008070200085B
:10016000070200080702000807020008070200084B
:10017000070200080702000807020008070200083B
:10018000070200080702000807020008070200082B
:10019000070200080000000007020008070200082C
:1001A000070200080702000807020008070200080B
:1001B00007020008070200080702000807020008FB
:1001C000F90F0008070200080702000807020008EC
:1001D0000702000807020008DFF80CD000F0C0FB9F
:1001E00000480047C18400080817002006488047DF
:1001F00006480047FEE7FEE7FEE7FEE7FEE7FEE70C
:10020000FEE7FEE7FEE7FEE775650008D901000896
:100210002DE9F05F0546002092469B46884606463B
:10022000814640241BE0284641464746224600F0CE
:100230005DFA53465A46C01A914110D311461846EA
:10024000224600F044FA2D1A67EB01084F46224679
:100250000120002100F03BFA17EB00094E41201E5F
:10026000A4F10104DFDC484631462A464346BDE896
:10027000F09F40EA01039B0703D009E008C9121F61
:1002800008C0042AFAD203E011F8013B00F8013B50
:10029000521EF9D27047D2B201E000F8012B491E7C
:1002A000FBD270470022F6E710B513460A46044613
:1002B0001946FFF7F0FF204610BD2DE9FE4F80469E
:1002C00081EA0300C00F0C46009021F0004123F0AA
:1002D0000045B8EB0200A94105D2404621469046B0
:1002E0001C460B46024623F00040104347D0270D22
:1002F000C7F30A00C3F30A510290401A0190402844
:100300006BDAC3F3130040F4801B0098924620B1CF
:100310000023D2EB030A63EB0B0B01985946C0F1A3
:100320004002504600F0D3F906460D465046594665
:10033000019A00F0EBF910EB08006141002487EA14
:10034000115284EAE7731A4340D0009A62B3019ACB
:10035000012A4FEA075215DC001B61EB02014FF046
:10036000004202EA0752CDE90042001C41F580112B
:1003700032462B4600F076FA03B0BDE8F08F4046D7
:100380002146F9E7001B61EB0201001C41F58013D7
:1003900000185B412018A2F5001747EB030140EA63
:1003A000D570B6196D4111E06D084FEA360645EA81
:1003B000C0754FEA0752001B61EB0201001C41F5BA
:1003C000801149084FEA30000019514132462B464E
:1003D00003B0BDE8F04F00F036BA009801224000AB
:1003E0000023D0EB020263EBE073009821464FEA52
:1003F000E074B8EB000061EB0401E9E783F000432F
:100400005BE781F0004158E72DE9FE4F81EA0304E4
:1004100004F0004421F0004100944FF0000B23F061
:10042000004350EA01045ED052EA03045BD0C3F3F8
:100430000A54C1F30A552C44A4F2F3340194A0FBEE
:100440000254C1F3130141F48011C3F3130343F4C5
:10045000801301FB024400FB034E840A970A44EA1E
:10046000815447EA8357A4FB076802958D0A05FB70
:1004700007854FEA932C04FB0C542705029D4FEA95
:10048000065847EA1637B5EB08056EEB070C870EE2
:10049000920E47EA811742EA8312A7FB0201B6EBEC
:1004A0000B0164EB00042B0D43EA0C335E1844EBA4
:1004B0001C50DA465146E7FB0201C5F313044FEA2C
:1004C0000B3343EA14534FEA0432019C43EA060318
:1004D000A4F10C040294009CCDE900B400F0C2F930
:1004E00003B0BDE8F08F00200146F9E72DE9F04D9B
:1004F00081EA030404F0004B21F0004514464FF05C
:10050000000A23F0004150EA050220D054EA01021B
:100510001DD0C5F30A570246C5F31303C1F31300F8
:10052000C1F30A5640F4801543F48013A7EB060884
:10053000101BD64608F2FD3873EB050002D308F114
:10054000010801E092185B41B8F1000F03DA0020C6
:100550000146BDE8F08D00204FF480110646844628
:100560000EE0171B73EB050705D3121B63EB0503A6
:1005700006434CEA010C49084FEA300092185B41EF
:1005800050EA0107EDD152EA030012D082EA0400DA
:1005900083EA0501084305D0101BAB4106D20122B6
:1005A000002306E000224FF0004302E06FF001025A
:1005B00053101AEB06004CEB085110EB0A0041EB0C
:1005C0000B01BDE8F04D00F03EB90EB5C10F80EA59
:1005D000E0700844CA07002140F233438DE80E0062
:1005E0000A460B4600F03EF903B000BD0EB540F2DE
:1005F000334102910021CDE900110A460B4600F07B
:1006000031F903B000BD70B5C1F30A5201F00045E5
:100610000024C1F3130140F2FF3341F480119A42E8
:1006200001DA002070BD40F233439A42A2F2334215
:1006300003DC524200F05AF800E090402C43F1D025
:10064000404270BD00F0004230F000400AD0C10DC1
:1006500001F56071C0F3160042EA0151C20840077B
:100660001143704700200146704701F0004330B449
:1006700021F0004150EA010206D00A0DA2F5607295
:10068000C1F31301002A02DC30BC00207047440F84
:1006900044EAC104C100E01830BC00EBC25000F0D5
:1006A0009BB830B50B46014600202022012409E00A
:1006B00021FA02F59D4205D303FA02F5491B04FA1B
:1006C00002F52844151EA2F10102F1DC30BD202AFA
:1006D00004DB203A00FA02F1002070479140C2F199
:1006E000200320FA03F3194390407047202A04DBCB
:1006F000203A21FA02F00021704721FA02F3D0409B
:10070000C2F120029140084319467047202A06DBB7
:10071000CB17203A41FA02F043EAE07306E041FACF
:1007200002F3D040C2F120029140084319467047BD
:100730000FB40B0010B58AB00FA900910E994FF0BD
:100740000004234ACC60214CCDE9064200D00423AA
:100750006FF00042CDE901321E4A089202466B4614
:10076000002000F0B7F90AB010BC5DF814FBF0B53A
:1007700085B007464FF0FF300091CDE901011E46DC
:10078000002015460C4604903B466A46314604A8B4
:10079000FFF7CEFF04990346601825B109B1024660
:1007A00000E022462A6000290ED0002B02DD0099CD
:1007B000814209D00094001BCDE901043B466A4602
:1007C000314604A8FFF7B4FF05B0F0BD0D0D0008D9
:1007D0002B0D0008990900080029A8BF7047401C8C
:1007E000490008BF20F00100704710B4B0FA80FC47
:1007F00000FA0CF050EA010404BF10BC704749B184
:10080000CCF1200421FA04F411FA0CF118BF0121F3
:1008100021430843A3EB0C01CB1D4FEA00614FEAD3
:10082000102042BF002010BC704700EBC3501044A2
:100830000029A4BF10BC7047401C490008BF20F02D
:10084000010010BC704710B5141E73F1000408DAE3
:10085000401C41F1000192185B411A4301D120F084
:10086000010010BD2DE9F04D92469B4611B1B1FA41
:1008700081F202E0B0FA80F220329046FFF727FFC3
:1008800004460F4640EA0A0041EA0B0153465A4625
:10089000084313D0114653EA010019D0C8F14002B1
:1008A0005046FFF723FF05460E465046594642463E
:1008B000FFF70DFF084305D0012004E0204639462C
:1008C000BDE8F08D0020054346EAE0762C4337432F
:1008D0000A986305E40AA0EB08000022FD0A44EA36
:1008E00047540A3002D500200146E9E701051019F6
:1008F0006941DDE9084500196941BDE8F04DA2E70D
:10090000C1F30A52C1F3130140F2FF3341F48011E5
:100910009A4202DA00200146704740F233439A427D
:10092000A2F2334202DC5242FFF7E0BEFFF7CFBE35
:1009300030B5041E71F1000404DB4FF00044404266
:1009400064EB0101141E73F1000405DB1C464FF03B
:100950000043524263EB0403994208BF904230BD0A
:100960001CB509480090094801900546009C06E026
:10097000E06840F0010394E8070098471034AC4267
:10098000F6D3FFF72DFC000054AB000874AB000851
:1009900000487047F4AA000810B50446FFF7F8FFB6
:1009A0000068005D00F0010010BD00002DE9FF4F60
:1009B000087883B09946FF2805D0491C2D2804D01B
:1009C0000024002008E000200BE00124F9E700EB00
:1009D000800003EB4000491C0B78FF2BF7D104B1DA
:1009E000404200230293147819461D462D2C01D055
:1009F0002B2C04D1521C2D2C13D000240294AA4677
:100A00001478FF2C0FD00A25A3FB057801FB058184
:100A10004FF0000C03FB0C11521CE3194AEB0101CF
:100A2000EEE70124EAE7814453EA010002D019F518
:100A3000C87F06DA03980021C0E9001107B0BDE8BD
:100A4000F08F0025AE4E2F46DFF8B882184600F032
:100A50007DF9CDE90001B9F1000002DAC9F1000425
:100A600000E004460023A74A1AEB030B42EB045AAA
:100A700012E0E00707D02A46334638464146FFF7E2
:100A8000C3FC074688462A46334610461946FFF7F8
:100A9000BBFC05460E466410002CEAD1DDE90001DE
:100AA000B9F1000F5A46534606DAFFF71FFD3A46E2
:100AB0004346FFF71BFD05E0FFF7A6FC3A46434619
:100AC000FFF7A2FC029A0AB181F00041039AC2E941
:100AD0000001B3E72DE9FF4F1F468DB0D7E901466E
:100AE0004FF0FF382E2045464FF000090B90B969B2
:100AF0006D1C0E988847396A824688470028F6D1CF
:100B0000BAF1FF3F0AD024F4D064002E11DDBAF10F
:100B10002B0F08D0BAF12D0F0BD102E0404611B0D7
:100B20008DE744F48064B9696D1C0E98884782464D
:100B3000761E6946600501D52D2000E02B208DF83A
:100B4000000001F1010B0DF1200809E0B9696D1CED
:100B50000E98884782460F9844F40074761E05600C
:100B6000002E02DDBAF1300FF0D00B998A453ED14C
:100B700044F0800406E00F99681CA9F1010944F4CF
:100B800000740860B9696D1C761E0E98884782460D
:100B90003028F0D02BE00B998A4505D1200603D4EC
:100BA00044F08004761E18E0504609F0B7FB08B305
:100BB0000DF11302761EAAF1300044F4007493453F
:100BC00006D20BF8010B200607D5A9F1010003E0BE
:100BD000200602D409F101008146A00502D50F9933
:100BE000681C0860B9696D1C0E9888478246002E03
:100BF000D1DC53E0002E51DDBAF1650F02D0BAF11D
:100C0000450F4BD1A00549D5B9696D1C24F440743A
:100C1000761E0E9888478246002E0CDD2B2804D0C5
:100C2000BAF12D0F07D144F48074B9696D1C0E9888
:100C300088478246761EE00501D52D2100E02B2154
:100C400008F8011BCDF82C8021E00DF12901761E5A
:100C500044F4007488450CD2AAF1300010F0FF0073
:100C600088F8000002D10B99884509D908F10108DC
:100C700006E0E00501D5244801E042F20F7081460C
:100C8000B9696D1C0E98884782460F980560002E42
:100C900004DD504609F042FB0028D6D1F9690E98D0
:100CA0008847FF208BF8000088F80000002006909D
:100CB00007904B466A4608A906A8FFF777FEA005ED
:100CC00002D46FF001002AE714F0240F0AD0E007E5
:100CD00014D1DDE906123868031D3B600068C0E9E5
:100CE00000120BE0DDE90601FFF7BFFC0146E0075B
:100CF00004D13868021D3A600068016028460EE79A
:100D0000000014400000F03FF1D8FFFF426842B1FC
:100D1000016811F8013B23B1521EC0E900121846C8
:100D200070470121C160881E704742685AB1C3688C
:100D3000016843B983688B4205D0491E521CC0E943
:100D40000012002070474FF0FF3070470EB540F2A0
:100D5000334202920022CDE900221346FFF782FDC2
:100D600003B000BD70B5044600688268836802F075
:100D7000040203F00803D2185FD0C268920113D5B1
:100D8000627F012A10D1227F012A0DD10168490614
:100D900007D40121CAF24031013944D00268520619
:100DA000FAD5402101600121022911D08268520741
:100DB0000AD58268920707D482684FF6C073C7F6D7
:100DC000FF731A4010328260012901D1042614E019
:100DD000826812070AD58268920707D482684FF6A4
:100DE000C073C7F6FF731A402032826004260229BE
:100DF00008BF0826032908BF0C2601F04BF921681B
:100E00008968314219D0054604E000BF2068806837
:100E1000304212D001F03EF9401B0628F6D320687C
:100E200080683042F2D0E06D40F01000E065206E46
:100E300040F001002066012070BD002070BD000060
:100E4000B0B5016804468A688868C0074FF00000A2
:100E500032D012F0020218BFB0BD886800F00D0059
:100E6000012820D188684FF6C072C7F6FF72104083
:100E7000023088600320086001F00CF9216889685D
:100E8000C90704BF0020B0BD054603E020688068A4
:100E9000C00712D001F0FEF8401B0328F6D32068EB
:100EA0008068C007F2D0E06D40F01000E065206E71
:100EB00040F0010020660120B0BD0020B0BD000060
:100EC00070B582B004460020019021688A68D2077C
:100ED00011D14FF6C076C7F6FF76886806F17F021B
:100EE00010420AD0E06D40F01000E065206E40F046
:100EF00001002066012002B070BD88684FF4C16215
:100F0000304040F00100886040F20010C5F200005F
:100F1000814208BF4FF40272B1F1A04F08BF4FF4F5
:100F200002721058000220D401F0B4F821680A6857
:100F3000D20717D1054603E021680868C00711D120
:100F40008868C00704D18868304040F0010088609C
:100F500001F0A0F8401B0328EED320680068C0070A
:100F6000EAD1BFE7002002B070BD40F20400C2F237
:100F70000000006842F663518009C0F23E51A0FBB8
:100F80000101880900EB40000C2101EB800000BF4B
:100F9000019001980028C7D001980138F8E70000B7
:100FA000FEE7000040F24030C2F2000000F02ABE2E
:100FB00040F2A030C2F2000000F024BE40F2004037
:100FC000C2F2000000F01EBE40F26040C2F200001B
:100FD00000F018BE40F2C040C2F2000000F012BEA5
:100FE00040F22050C2F2000000F00CBE40F280201F
:100FF000C2F2000000F006BE40F2E020C2F20000A3
:1010000000F000BE40F20010C2F2000000F0FABD95
:1010100040F26010C2F2000000F0F4BD40F2C010D7
:10102000C2F2000000F0EEBD40F22020C2F200004B
:1010300000F0E8BD40F2A000C2F2000000F0E2BD06
:1010400070470000EFF3108072B600BFFEE70000AB
:1010500090F85820012A04BF0220704770B582B072
:101060000122002380F8582001930093026840F287
:10107000080CC5F2000CB2F1A04F0CF1F8050AD033
:1010800040F20043C5F200039A4207D10CF59F6479
:10109000002333B136E02C461BB133E0002401239A
:1010A00083BBA368946823435B072BD44FF4E063AE
:1010B000D1F800E0AA4208BF4FF44073B2F1A04F4C
:1010C00008BF4FF440735CF80340BEF1000F24F4F6
:1010D000604424D04D6890F8386042F4807245EA4C
:1010E00046352C4340F20015C5F20005AA424CF8E3
:1010F000034026D1DCF80020DCF800412243D2076F
:1011000046D128E0C16D41F02001C16501210022D6
:1011100080F8582002B0BDE870400846704742F49D
:10112000807140F20012C5F2000291424CF8034077
:101130001BD1DCF80010DCF800211143C90727D1CE
:101140001DE0DCF80024DCF80045DCF80056224302
:101150002A43D2071CD15CF8032040F61F7489682B
:10116000A243114341EA0E010EE0DCF80014DCF862
:101170000025DCF8006611433143C90708D15CF84B
:10118000031040F61F7291434CF803100021BEE794
:101190000021BCE7F0B581B00022009290F8582001
:1011A000012A01D10221BEE10123076880F85830ED
:1011B000BB685B0734D4D1E900361F22C6F3012592
:1011C00007EB85052C6B06F01F06B240C3F3846362
:1011D00024EA0202B3401A432A63BA68BB6802F0E9
:1011E000040203F00803D21840F0AC800A68042619
:1011F00007F1140306EAD25CC2F340668D6853F827
:101200002660C2F304540722A240B5F1004F26EA3B
:1012100002060BD143F80C601A6842F000430DE05F
:10122000C16D41F02001C165012179E105FA04F2A7
:10123000324343F80C201A6822F000437B61D1E965
:101240000436FD68042B50D13A6E3A6E0B68C2F337
:10125000846293FAA3F6B6FA86F65D0308BFC3F379
:1012600084664FF6FF73B242C0F2070303D13A6EB1
:1012700022F000423A667A6E7A6E0E68C2F3846299
:1012800096FAA6F5B5FA85F51E4208BFC6F3846541
:10129000AA4203D17A6E22F000427A66BA6EBA6E22
:1012A0000E68C2F3846296FAA6F5B5FA85F51E4279
:1012B00008BFC6F38465AA4203D1BA6E22F0004289
:1012C000BA66FA6EFA6E0E68C2F3846296FAA6F5F2
:1012D000B5FA85F51E4208BFC6F38465AA4231D12E
:1012E000FA6E22F00042FA662CE0062202EA95022B
:1012F00006FA02FC0E6807F1600555F823404FF22C
:101300000002C0F2FF3206F0F846224046EA0C0620
:10131000324342F0004245F823200A698B6955F8B0
:10132000226026F08076334345F822300A690B7F2D
:1013300055F82260012B26F0007608BF06F10076F2
:1013400045F82260BA68D20743D10E68CA68D7F858
:10135000B05033466FF3DF4325EA030C4FF6FF75B9
:1013600002F01804C0F20705E54000243540C4F23D
:101370007F0445EA0C05A242C7F8B05029D196FA7D
:10138000A6F2B2FA82F2002B08BFB20E013202F0CE
:101390001E0302F01F0201260025964002EB4202C6
:1013A000CFF6206505EB0255354345F000750A2B55
:1013B00038BF46EA0255C5F3406307EB83038A68EA
:1013C0005E69C5F304550724AC40A643AA403243E6
:1013D0005A6109680022C8F20802114200F09F8099
:1013E00040F2083EC5F2000E0EF58063AEF50276BF
:1013F0001C46B74204BF40F20834C5F20004B7F1FE
:10140000A04F04BF40F20834C5F200042568002252
:10141000CCF22132914205F0E07C04D01022C9F2D6
:10142000C00291422FD12A022DD440F20061C5F2B0
:1014300000018F4202D0B7F1A04F70D1216842F66F
:10144000635221F0E07141EA0C0141F40001216096
:1014500040F20401C2F200010968C0F23E5289095B
:10146000A1FB0212910901EB41010C2202EB810167
:1014700000910099002952D00099013900910099FA
:101480000029F9D14BE0BA1B0024B2FA82F2CCF267
:101490005274A1424FEA521415D10022B2EB1C6FD4
:1014A00011D1B7F1A04F22D040F20011C5F20001D6
:1014B0008F424FF0000133D040F20052C5F20002DB
:1014C000974215D12CE00022CCF6843291424FF0A5
:1014D000000108BF15F4800222D1B7F1A04F12D04D
:1014E00040F20011C5F200018F4218D00CE0012437
:1014F000002C18BF7346196821F0E07141EA0C0115
:1015000041F080710AE00124002C18BF734619686D
:1015100021F0E07141EA0C0141F4800119600021E1
:10152000002280F85820084601B0F0BD0068006C29
:101530007047000070B582B000210028019142D0B0
:10154000C16D39B9044600F009F920460021216631
:1015500084F858100268916889004FF6C071C5F68A
:10156000FF7102D593680B4093609368DB001DD434
:10157000936801F18051194041F08051916040F22F
:101580000401C2F20001096842F663538909C0F2FE
:101590003E53A1FB03139909022303EB410100BF52
:1015A0000191019911B101990139F9E79168C900D7
:1015B0000BD4C16D012641F01001C165016E41F0EF
:1015C0000101016602E00126B7E000269368C46DC0
:1015D00003F0040304F010041B19C36D77D123F446
:1015E00081730233C3659368DB072AD140F200148C
:1015F00042F48073C5F2000440F2080CA342C5F225
:10160000000C40F09D80DCF80040DCF800311C4309
:10161000E30716D10CF1F8034FF4E064D0F804E0CE
:101620009A4208BF4FF44074B2F1A04F08BF4FF484
:1016300040745CF8043023F47C1343EA0E034CF846
:101640000430437FC46BD0E9021544EA43332B4393
:1016500090F824501943012D41EA054306D1816ACF
:101660000025CFF6FE7505EB41410B43C46A24B15A
:10167000016B04F4787529430B43D16844F20705E4
:10168000CFF6F07529401943D1601169436B21F001
:10169000406119431161916809073FD490F83810EF
:1016A000037F490041EA8331D36844F20205AB432A
:1016B0001943D160036914696BB144F4803111613D
:1016C000D2F8C01043F6FF75A9430B430CE043F07A
:1016D0001002012630E024F480311161D2F8C010EC
:1016E00043F6FF7321EA0303C2F8C03090F84010BC
:1016F000136901290FD140F2FD7123EA010CD0E9F1
:101700001135D0E9134143EA0C032B43234319431A
:1017100041F0010301E023F0010313614169136B00
:10172000012923F00F0302D1016A01390B4313632E
:10173000C26D012161F30102C265304602B070BD85
:10174000DCF800E4DCF80045DCF8003644EA0E047E
:101750001C43E3073FF45EAF73E7000070B59CB035
:10176000044600201B90CDE91900CDE9170002A81E
:101770005421FEF797FD206840F20041C5F20001B8
:10178000884201D01CB070BD4FF4803002904FF001
:101790000040149002A801F0FDF8002818BFFFF7E0
:1017A00051FC41F24C00C4F202000168002641F4F1
:1017B00080410160016801F4804101910199016853
:1017C00041F008010160006817A900F008000190CD
:1017D00001984FF4804017900320189040F6004085
:1017E000C4F60000199600F077FB40F2A00540F225
:1017F0005840C2F20005C4F20200252180224FF4B5
:1018000080734FF4806C85E843002846C5E9036285
:10181000C5E9053CC5E9076600F042FA002818BF93
:10182000FFF710FC6565AC621CB070BD2DE9F04F90
:1018300081B040F200480446C5F2000800680D4639
:10184000A8F540724FF44271D4F81890904208BF46
:101850006FF0F701B0F1A04F08BF6FF0F70151F83A
:101860000820B9F1080F02F01F0A01D108270DE086
:10187000BAF1090F6BD8012202FA0AF240F22123D1
:101880001A4264D0C068C00766D1042700F002FC89
:1018900021680A683A4226D0E06D40F40070E065A5
:1018A000C86810F4406F0FD1607F68B908680007FE
:1018B0000AD5E06D20F48070E065E06DC00403D4CB
:1018C000E06D40F00100E06540F20010C5F200005C
:1018D00081421ED040F20052C5F2000291420A46F7
:1018E00008BF424617E083466E1C07E02068006888
:1018F000384244D0216808683842CDD1002EF9D052
:1019000000F0C8FB002DF1D0A0EB0B00A842F1D9EC
:10191000ECE74FF0A0428A420A460AD0BAF1090F1A
:1019200022D8012202FA0AF240F221231A420A4680
:101930001AD0D068B9F1080F01D1082002E04004A4
:1019400001D40C200860002001B0BDE8F08F58F8E9
:10195000010010F4604F98D0E06D40F02000E06589
:10196000012001B0BDE8F08F814213D040F2005059
:10197000C5F200000A46814208BF4246D9E7E06D41
:1019800040F00400E065002084F85800032001B016
:10199000BDE8F08F4FF0A042CBE7000070B540F2F9
:1019A00000450446C5F200050068A5F540714FF4F6
:1019B0004272884208BF6FF0F702B0F1A04F08BF33
:1019C0006FF0F70256598068400703D494F8580026
:1019D000012801D1022070BD012084F85800204662
:1019E000FFF76EFA18B1002184F8581070BD216815
:1019F000E26D40F6017340F2001E9A43C5F2000EFC
:101A000040F2005C02F580727145C5F2000CE2659F
:101A100004D00A46614508BF2A4601E04FF0A042C3
:101A20008A4206F01F0218BF002A03D1E36D23F497
:101A30008013E365E36D0026DB044FF0000344BF31
:101A4000236E23F0060323661C2371450B6084F884
:101A5000586006D00E46614508BF2E468E4204D11E
:101A60000CE04FF0A0468E4208D0092A17D8012377
:101A700003FA02F240F221231A4210D0CA689201FE
:101A800004D5E26D012363F30D32E2658A684FF6F7
:101A9000C073C7F6FF731A4004328A6070BDE26DEE
:101AA000714542F48012E26503D0614508BF2946C2
:101AB00001E04FF0A041C968890158BF70BDE16DD8
:101AC000012262F30D31E16570BD000010B50446DE
:101AD00090F85800012804BF022010BD012084F8AE
:101AE000580020460321FFF73DF948B92046FFF78B
:101AF000A7F928B9E16D41F2011291430131E16585
:101B0000002184F8581010BD002804BF0120704740
:101B100090F82510022927D180B50168D0E910CEB0
:101B2000826C0B6823F001030B600B6823F00E033B
:101B30000B60116821F4807111600EF01F01012209
:101B400002FA01F1CCF80410D0E913215160416D83
:101B500031B10A6822F480720A60D0E916124A6034
:101B60000021BDE8804002E00421C163012101227F
:101B700080F82520002280F82420084670470000C5
:101B800090F82510022930D180B50168D0E910CE37
:101B9000826C0B6823F001030B600B6823F00E03CB
:101BA0000B60116821F4807111600EF01F02012199
:101BB00001FA02F2CCF80420D0E913325A60426DE7
:101BC00032B1136823F480731360D0E91623536095
:101BD00080F82510826B002180F824100AB190470C
:101BE0000021BDE88040084670470421C1630121FF
:101BF000002280F8251080F8242008467047000055
:101C0000C06B7047B0B5D0E910C30268DCF80010B3
:101C100003F01F030424D2F800E09C400C4218BFDC
:101C20001EF004051BD102249C400C4218BF1EF07C
:101C3000020520D1D94009071CD51EF0080108BFB4
:101C4000B0BD116821F00E011160012101FA03F20B
:101C5000CCF80420C16380F82510416B18E01168AE
:101C6000890603D4116821F004011160CCF8044006
:101C7000016B91B9B0BD1168890606D4116821F0D5
:101C80000A011160012180F82510CCF80440C16AD6
:101C90000022002980F82420ECD0BDE8B04008479D
:101CA00000284FF0010C00F08E802DE9F04F00214C
:101CB000C4F2020102684FF6F83301F5816ECBF6EB
:101CC000FD73724538BF03F580634CF6CD45134470
:101CD000CCF6CC45A3FB053802F0FC03A3F10803C6
:101CE000A3FB053500F1080B01F580646FF00303D9
:101CF0009BE8000E3CBF0024C4F2020403EA9808EB
:101D0000C0E91048022480F82540146847F6F076B0
:101D1000B443D0E9056744EA0A0444EA0B04D0E975
:101D2000073134433C432343194341EA090111601D
:101D30000821002301EB1511C4F20203724538BFDC
:101D4000290903F5026238BF03F5006201F01F01A3
:101D5000424403F508630CFA01F58264C364B9F5E3
:101D6000804F056504BF00214160476840F684014B
:101D700007F07F0313607A1EC4F20201032A0D608C
:101D800012D85A1E01EB8203002702F01F0201261F
:101D900043F87C7F01F1BC0706FA02F2C0E915376F
:101DA000C265C1F8C02003E00021C0E91511C1657A
:101DB0004FF0000C0121C0F83CC080F8251080F8DD
:101DC00024C0BDE8F04F60467047000090F824C082
:101DD000BCF1010F43D04FF0010C80F824C090F803
:101DE00025C0BCF1010F37D12DE9F0414FF0020CB5
:101DF00080F825C04FF0000CC0F83CC0D0F800C0FF
:101E000000F14C0E9EE83040DCF80060BEF1000F9F
:101E100026F00106CCF8006065601CBFD0E91645CD
:101E20006560D0E91056846806F01F060127D0F8D7
:101E3000308007FA06F66E60CCF80430102C0B46A2
:101E400004BF13460A46B8F1000FCCF80830CCF8AE
:101E50000C2006D00E210BE0002180F82410022077
:101E60007047DCF8001021F00401CCF800100A21C2
:101E7000DCF800201143CCF80010806C0168C90325
:101E800003D5016841F480710160BEF1000F05D0F7
:101E9000DEF8000040F48070CEF80000DCF80000AE
:101EA00040F00100CCF800000020BDE8F081000007
:101EB000B0B5044600F0EEF8054640F22800C2F244
:101EC00000000068611C18BF044400BF00F0E2F885
:101ED000401BA042FAD3B0BD2DE9F04F83B00E688D
:101EE000002E00F0C88000F1200241F2004C009268
:101EF00000F13847C4F6000C06224FEAB7256045CA
:101F000008BF0522052D38BF4FEAB722002500275C
:101F10004FF0000801920AE00E6808F1010836FA55
:101F200008F207F1020705F1040500F0A480012280
:101F300002FA08FB16EA0B09EED0D1F804C003221E
:101F40000CF0030AAAF10106012E02FA07FE0FD8CF
:101F50008468CA6824EA0E04BA4022438260426858
:101F6000CCF3001422EA0B0204FA08F42243426084
:101F7000BAF1030F02D18A68012A06D0C2688C68C0
:101F800022EA0E02BC402243C260BAF1020F13D112
:101F90006FF00302009C02EA580254F802C005F0F8
:101FA0001C030F26D1F810A09E402CEA060C0AFA5A
:101FB00003F343EA0C03A35002684B6822EA0E02C3
:101FC00003F00306BE40324313F4403F0260A3D047
:101FD00041F26003C4F202031A6840F2004E42F07C
:101FE00001021A601A68C4F2010E02F001020292A4
:101FF000029A28F003024FF6084C7244CFF6FF7C99
:1020000052F80C3005F00C060F24B440A343019C99
:1020100004FA06F6334342F80C30DEF808204B6829
:1020200042EA090640F20C4CDC0258BF22EA0906DB
:10203000CEF80860C4F2010CDCF800209C0242EAF1
:10204000090658BF22EA0906CCF80060DEF8042031
:102050009C0342EA090658BF22EA0906CEF804604A
:10206000DEF80020DB0342EA090658BF22EA09062F
:10207000CEF8006050E703B0BDE8F08F006908407B
:1020800018BF0120704700001823002A08BF28232A
:10209000C150704741F20430C2F20000006870473E
:1020A00090F84120202A03D190F84020012A01D144
:1020B00002207047242280F841200268136823F030
:1020C00001031360136823F48053136013681943EA
:1020D0001160116841F001011160202180F8411068
:1020E000002180F8401000207047000090F8412047
:1020F000202A03D190F84020012A01D10220704704
:10210000242280F841200268136823F00103136041
:10211000136823F4706343EA01211160116841F0F0
:1021200001011160202180F84110002180F8401049
:10213000002070470268436B91691268002B08BF4A
:1021400070471847002804BF0120704710B590F869
:10215000411031B9002180F84010044600F0D0F958
:102160002046242180F8411090E80610C4680B68CE
:1021700022F0706223F001030B600A618A68012C6F
:1021800022F400428A604FF4044208BF4FF4004238
:1021900042EA0C028A604A68022C22F4006208BFFC
:1021A00002F500624A604A6800F1100442F00072D1
:1021B00042F400424A60CA6822F40042CA601CCC61
:1021C0001A4342EA0422CA60D0E907231A430A608C
:1021D0000A6842F001020A6000212022416480F86E
:1021E0004120016380F84210002010BD2DE9F04F1E
:1021F00081B0044690F84100202807D10A9E4EB1D4
:102200000B9F3FB194F84000012807D1022001B094
:10221000BDE8F08F4FF4007060646DE101209B46D3
:102220009146884684F84000FFF734FF2168054650
:102230008969090428D4222084F84100402084F8C8
:10224000420000206064666267852168606349F629
:10225000000A40464B68CFF6004A6FF39F205FFAB2
:102260008BF2804640EA024003EA0A02104400F57D
:102270000050486088690C9E80073CD4771C28E099
:10228000206880690004D6D5204619212A4603F02B
:1022900049FA002840F03081FFF7FCFE401B1A2865
:1022A000EED3206880690004EAD5606C40F020001D
:1022B0006064202084F84100002084F8420019E185
:1022C00020688069800740F1088120688069800764
:1022D00011D4204631462A4603F024FA002840F063
:1022E0000881002FF1D0FFF7D5FE002EE8D0401B6B
:1022F000B042EAD9E4E72068BBF1010F23D04FEAEE
:1023000019218162806980071CD4771C08E020684D
:102310008069800740F1E18020688069800711D4DE
:10232000204631462A4603F0FDF9002840F0E180BE
:10233000002FF1D0FFF7AEFE002EE8D0401BB042D8
:10234000EAD9E4E720685FFA89F181622068806950
:1023500040061CD4771C08E020688069400640F1E4
:10236000BC8020688069400611D4204631462A4648
:1023700003F0D8F9002840F0BC80002FF1D0FFF71F
:1023800089FE002EE8D0401BB042EAD9E4E7608D18
:1023900040F20009B0F5807FC0F2FF19404609D332
:1023A000FF222168228551F8042F09F5105302EA13
:1023B0000A020BE0628D2168228551F8043FD2B2F7
:1023C00003EA0A0343EA024209F592331A4302433D
:1023D00000F1007B771C0AF5806A0A6004E020683F
:1023E000806940077FF561AF20688069400710D49D
:1023F000204631462A4603F095F900287CD1002F6B
:10240000F2D0FFF747FE002EE9D0401BB042EBD9D7
:10241000E5E72068616A406A0870606A218D0130D2
:102420006062481E2085618D01396185618DB9B377
:10243000000405D034E02068806900067FF535AFE0
:1024400020688069000610D4204631462A4603F0F1
:1024500069F9002850D1002FF2D0FFF71BFE002EA3
:10246000E9D0401BB042EBD9E5E7608DB0F5807F45
:102470000BD32068FF212185416801EA0A0141EA66
:10248000080141EA090141600AE0608D2168208568
:102490004A68C0B24BEA004002EA0A0210434860B0
:1024A000608D0028A0D1204631462A4603F0D4F999
:1024B00010BB20682021C16142684EF60003CFF6B0
:1024C00000631A404260002084F8411084F8420002
:1024D00084F8400001B0BDE8F08F606C40F020004F
:1024E0006064202084F84100002084F8420084F8D1
:1024F0004000002084F84000012001B0BDE8F08FCA
:102500002DE9F0479CB00446002502A854211B95F4
:10251000CDE91955CDE91755FDF7C4FE206845F6FC
:102520000001C4F20001884200F0938045F20041AE
:10253000C4F20001884240F0F28040200290002660
:1025400002A8099600F026FA002818BFFEF77AFDC7
:1025500041F24C07C4F20207386817AD40F00100A1
:102560003860386840F2084800F001000190019896
:1025700038684FF0120940F00200386038684FF0B8
:10258000040A00F00200019001984FF400401790F7
:102590004FF090402946C4F20208CDE918961A96E9
:1025A000CDF86CA0FFF798FC4FF40070CDE9170947
:1025B00040F20040C4F600002946CDE91966CDF886
:1025C0006CA0FFF789FCF86840F2001540F4001099
:1025D000F860F868C2F2000500F40010019001985C
:1025E00010274FF080092846C5E90087C5E9026633
:1025F000C5E90496C5E906662E62FFF751FB00287F
:1026000018BFFEF71FFDE563AC6240F2601508F1EC
:102610001400C2F200051121002285E8830028463B
:10262000C5E90329C5E90522C5E90722FFF738FBFB
:10263000002818BFFEF706FD1F2000210022A56319
:10264000AC6200F0E7F81F2000F0D2F81CB0BDE843
:10265000F0874FF0800802A8CDF808800A9500F0B6
:1026600099F9002818BFFEF7EDFC41F24C05C4F2C1
:102670000205286840F2084940F0010028602868F7
:10268000122700F00100019001984FF4407017905C
:10269000042000261B9017A94FF09040C4F20209B5
:1026A0001897CDE91966FFF717FCE86840F4800039
:1026B000E860E86840F2C01500F4800001900198DD
:1026C00009F12800C2F20005C5E900072846C5E95E
:1026D0000266C5E90486C5E906662E62FFF7E0FAE0
:1026E000002818BFFEF7AEFCE563AC6240F220257F
:1026F00009F13C00C2F2000513211022802385E875
:1027000047002846C5E90436C5E906662E62FFF78C
:10271000C7FA002818BFFEF795FCA563AC621CB091
:10272000BDE8F08740F2280041F20431C2F2000017
:10273000C2F2000100680A68104408607047000097
:1027400080B5032000F092F80F2000F009F800286F
:102750001CBF012080BD00F031F8002080BD0000CA
:1027600040F22801C2F200010968002904BF0120DB
:10277000704710B5044640F20400C2F200004FF466
:102780007A720068B2FBF1F1B0FBF1F000F078FF73
:1027900001460F2C4FF001000ED8002918BF10BDC4
:1027A0004FF0FF302146002200F034F840F22C01B7
:1027B0000020C2F200010C6010BD000082B041F2A6
:1027C0005800C4F20200816841F001018160816813
:1027D00001F0010101910199016841F0805101600E
:1027E000006800F080500090009802B000F0C8B877
:1027F000002848BF704700F01F01012202FA01F1D2
:102800001C2202EAD0004EF20012CEF200028150E9
:102810007047000010B54EF60C5CCEF2000CDCF8F0
:102820000030C3F3022E8EF00704042C28BF0424CA
:10283000BEF103034FF0FF3E0EFA04F438BF00234D
:10284000A14399400EFA03F39A43114300F1604209
:1028500000F00F03090102F56442043B63440028C1
:1028600048BF03F10C02117010BD00004EF60C5170
:10287000CEF200010A684FF6FF031A4060F30A2205
:1028800042F0806040F0FD700860704747F2000C35
:10289000C4F2000CDCF80020B0F5007F35D0002831
:1028A00066D1DCF8800002F4C06220F48070B2F5DA
:1028B000806FCCF8800026D1DCF80000012262F3A2
:1028C0004A20CCF8000040F20400C2F20000006888
:1028D000322358434DF68363C4F21B33A0FB03033A
:1028E00002EB9340002200BFDCF81410013842F1E3
:1028F0000003490501D5002BF6D1DCF81400400592
:1029000044BF0320704700207047DCF8800002F4C9
:10291000C06140F48070B1F5806FCCF88000F2D1D6
:10292000DCF80000012161F34A20CCF8000040F2FD
:102930000400C2F200000068322250434DF6836268
:10294000C4F21B32A0FB020201EB9240002200BF46
:10295000DCF81410013842F10003490501D5002BC1
:10296000F6D1DCF81400400544BF03207047CAE7E5
:10297000022060F34A22CCF80020002070470000BB
:1029800047F20800C4F20000016841F48041016090
:10299000704700002DE9F04381B08146807841F214
:1029A00088060007C4F2020601D400204AE056F867
:1029B000300C5FEAC0080BD456F8300C40F0805061
:1029C00046F8300C56F8300C00F08050009000981B
:1029D00047F20004C4F20004206840F480702060D4
:1029E000FFF758FB054600BF2068C70508D4FFF76E
:1029F00051FB401B0328F7D30320002F03D418E01A
:102A00000020002F15D5B16811F4407100F0298124
:102A1000D9F85020914240F02981C90740F0358112
:102A200038B9B068D9F8501020F440700843B0604D
:102A30000020B8F1000F05D456F8301C21F0805169
:102A400046F8301CD9F80010CA0716D18A071DD4E1
:102A50004A0724D40A072BD4CA0632D48A0639D4AA
:102A60004A0640D40A0647D4CA054ED48A0355D430
:102A70008A055CD44A0563D472E03268D9F8043020
:102A800022F003021A4332608A07E1D53268D9F88E
:102A9000083022F00C021A4332604A07DAD5326855
:102AA000D9F80C3022F030021A4332600A07D3D52D
:102AB0003268D9F8103022F0C0021A433260CA06D8
:102AC000CCD53268D9F8143022F440721A433260FF
:102AD0008A06C5D53268D9F8183022F440621A4304
:102AE00032604A06BED53268D9F81C3022F4405212
:102AF0001A4332600A06B7D53268D9F8203022F47A
:102B000040421A433260CA05B0D53268D9F8243041
:102B100022F440321A4332608A03A9D57269D9F887
:102B2000283022F003021A4372618A05A2D5326866
:102B3000D9F82C3022F440221A4332604A050FD5CE
:102B40003268D9F8303022F440121A43B3F5801FAE
:102B5000326005D156F87C2C42F4801246F87C2C69
:102B60000A050FD53268D9F8343022F440021A43EE
:102B7000B3F5800F326005D156F87C2C42F48012F8
:102B800046F87C2CCA040FD53268D9F8383022F0C8
:102B900040721A43B3F1807F326005D156F87C2C25
:102BA00042F4801246F87C2C8A040FD53268D9F89A
:102BB0003C3022F040621A43B3F1006F326005D11D
:102BC00056F87C2C42F4801246F87C2C4A040FD52F
:102BD0003268D9F8403022F040621A43B3F1006FF6
:102BE000326005D156F87C2C42F4801246F87C2CD9
:102BF0000A040FD53268D9F8443022F040521A4303
:102C0000B3F1805F326005D156F87C2C42F48032FB
:102C100046F87C2CCA030FD53268D9F8483022F028
:102C200040421A43B3F1804F326005D156F87C2CF4
:102C300042F4803246F87C2C49030FD57169D9F8EB
:102C40004C2021F440111143B2F5001F716105D1F0
:102C500056F87C1C41F4801146F87C1C01B0BDE89C
:102C6000F0830021C9073FF4DBAE0EE0B168B26823
:102C700021F4407142F48032B260B26822F48032B2
:102C8000B260B160C9073FF4CBAE0446FFF702FA69
:102C9000054641F2893700BFB068800709D4FFF7C5
:102CA000F9F9401BB842F7D3032000287FF4C1AEE6
:102CB000B7E6204600287FF4BCAEB2E62DE9F04727
:102CC000002800F0FE8042F2000AC4F2020A044624
:102CD000DAF800000D4600F00F0081420DD9DAF855
:102CE000000020F00F002843CAF80000DAF80000C6
:102CF00000F00F00A84240F0E480216841F208088B
:102D0000C807C4F202080CD14FF0000920688107FF
:102D10004BD4B9F1000F61D0D8F8000020F0F000DA
:102D20005AE0606858F8082C022800F0C880032890
:102D300040F0CA80920140F1C480D8F80420D8F84D
:102D4000043042F20046C3F3031302F00302D8F842
:102D500004700133C0F2F406032A04BF41F20026D6
:102D6000C0F27A06B6FBF3F2D8F80430C7F30627B0
:102D70007A43C3F34163022707EB4303B2FBF3F249
:102D80004BF20043C0F2C4439A4240F2E480D8F8C8
:102D9000002012F0F00F00F0D480890740F1DB80B2
:102DA000A168002940F0D780CBE0410705D5D8F8CD
:102DB000001041F4E061C8F80010000706D5D8F80B
:102DC0000000072161F30D20C8F80000D8F80000CA
:102DD000A16820F0F0000843C8F80000DAF800000D
:102DE00000F00F00854219D2DAF8000020F00F0041
:102DF0002843CAF80000FFF74DF9064641F288372C
:102E0000DAF8000000F00F00A84207D0FFF742F9FF
:102E1000801BB842F4D90320BDE8F0872068410741
:102E200007D5D8F80010E26821F4E0611143C8F832
:102E30000010000708D5D8F80000216920F4605080
:102E400040EAC100C8F80000D8F8000042F2004192
:102E5000C0F2F40100F00C000428084600F09C8049
:102E6000D8F8000000F00C00082841F20020C0F261
:102E70007A0000F09180D8F8002002F00C020C2AB1
:102E800040F08980D8F80420D8F8043002F003021A
:102E9000C3F30313D8F804700133032A08BF0146B3
:102EA000B1FBF3F0D8F80410C7F30627C1F3416172
:102EB0000222784302EB4101B0FBF1F06CE0910398
:102EC00004D40120BDE8F0875105FAD5D8F80010E8
:102ED00001F00C0104293ED0D8F8001001F00C01DB
:102EE000082938D0D8F8001001F00C010C2932D193
:102EF000D8F80410D8F8042042F20047C2F30312B5
:102F000001F00301D8F804300132C0F2F4070329BC
:102F100004BF41F20027C0F27A07B7FBF2F1D8F8FC
:102F20000420C3F306235943C2F34162022303EB97
:102F30004202B1FBF2F14BF20042C0F2C4429142B4
:102F400009D9D8F80010082262F307114FF00109DF
:102F5000C8F8001001E04FF00009D8F8001021F087
:102F600003010843C8F80000FFF794F8064641F251
:102F7000883700BFD8F80000616800F00C00B0EBA3
:102F8000810F3FF4C3AEFFF785F8801BB842F1D93B
:102F90000320BDE8F0870020D8F800104AF6F82298
:102FA000C1F30311C0F60002515C40F2040201F0CB
:102FB0001F0120FA01F140F22C00C2F2000000686B
:102FC000C2F200021160BDE8F047FFF7C9BB000084
:102FD00040F2040041F20801C2F20000C4F2020112
:102FE000006809684AF60832C1F30221C0F60002FF
:102FF000515C01F01F01C8407047000040F204001E
:1030000041F20801C2F20000C4F20201006809683E
:103010004AF60832C1F3C221C0F60002515C01F049
:103020001F01C8407047000041F20C01C4F20201C8
:1030300051F8040C42F20042C0F2F40200F00C001D
:103040000428104608BF704751F8040C00F00C002B
:10305000082841F20020C0F27A0025D051F8043C43
:1030600003F00C030C2B1CBF0020704780B5D1F877
:1030700000C00B680CF0030CC3F3031E0B680EF1C9
:10308000010EBCF1030F08BF02460968B2FBFEF057
:10309000C3F30623C1F341610222584302EB41010D
:1030A000B0FBF1F0BDE8804070470000002804BF8D
:1030B000012070472DE9F04182B00446007841F2CA
:1030C0000006C007C4F202061DD12078800737D45D
:1030D000207800075AD42078400778D420788006DA
:1030E00000F1BF80E569002D00F01E82B06800F09D
:1030F0000C000C2840F01E81012D40F09881012029
:1031000002B0BDE8F081B06800F00C01F068082959
:1031100054D0032281F00C0122EA00000844B0FAE6
:1031200080F040094AD165683068B5F5A02F00F0FD
:10313000C680B5F5803F40F0C98040F48030CBE0D8
:10314000B068F16800F00C00042864D001F00301BD
:1031500080F00C0081F002010844B0FA80F04009D0
:1031600059D1E1683068002900F0D18040F48070C6
:103170003060FEF78FFF05463068400500F1FC80A7
:10318000FEF788FF401B0228F6D936E16169D6F8C0
:103190009400002900F0818040F00100C6F89400FE
:1031A000FEF778FF054600BFD6F89400800792D45A
:1031B000FEF770FF401B0228F6D91EE1306880033D
:1031C0007FF583AF606800287FF47FAF39E0B06D92
:1031D0005FEAC00808D4B06D40F08050B065B06DB3
:1031E00000F080500190019847F20007C4F20007F8
:1031F0003868C00529D4386840F480703860FEF71C
:1032000049FF05463868C0051FD4FEF743FF401B41
:103210000228F7D9F1E03068400501D5E06880B1B7
:103220007068216920F0FE4040EA0160706040F261
:103230002C00C2F200000068FFF792FA00283FF469
:1032400047AF012002B0BDE8F081A568D6F8900034
:10325000052D00F0AE80012D40F0B48040F001005B
:10326000B8E0A169D6F89800002900F08D8040F000
:103270000100C6F89800FEF70DFF0546D6F8980045
:1032800080073FF52FAFFEF705FF401B02284FF0E8
:103290000300F3D902B0BDE8F08120F00100C6F8C8
:1032A0009400FEF7F7FE0546D6F8940080077FF5F8
:1032B00012AFFEF7EFFE401B0228F5D99DE040F467
:1032C00080203060306840F4803005E020F48030A9
:1032D0003060306820F480203060FEF7DBFE002D87
:1032E000054610D0306880033FF5EFAEFEF7D2FE02
:1032F000401B6428F6D980E0FEF7CCFE401B642812
:103300004FF00300C6D830688003F5D4DDE620F422
:1033100080703060FEF7BEFE054600BF3068400595
:103320007FF5D6AEFEF7B6FE401B02284FF0030035
:10333000F4D9AFE7306820F080703060FEF7AAFE65
:10334000022D05460CD100BF3068800140F1A880F5
:10335000FEF7A0FE401B02284FF00300F4D999E7C6
:103360003068800140F1D980FEF794FE401B0228AE
:103370004FF00300F4D98DE77068216920F0FE401A
:1033800040EA01607060A3E620F00100C6F89800F2
:10339000FEF780FE054600BFD6F8980080077FF54F
:1033A000A1AEFEF777FE401B02284FF00300F3D9D1
:1033B00070E740F00400C6F89000D6F8900040F0A6
:1033C000010007E020F00100C6F89000D6F8900058
:1033D00020F00400C6F89000FEF75CFE002D0546C4
:1033E00041F2883716D000BFD6F89000800715D478
:1033F000FEF750FE401BB842F6D9032002B0BDE8EC
:10340000F08100BFFEF746FE401BB8424FF00300BC
:103410003FF640AFD6F890008007F3D4B8F1000F24
:103420003FF55CAEB06D20F08050B06556E6F068B8
:10343000216A00F003028A427FF403AF626A6FF0F0
:103440000F0300F0F00103EB021291427FF4F9AE9A
:10345000A16A00F4FE42B2EB012F7FF4F2AEE16A02
:1034600000F07842B2EBC16F7FF4EBAE226B002329
:10347000CFF6E07303EA025200F4C001A2F5001295
:1034800091427FF4DEAE616B4FF07E4202EA016151
:1034900000F0C06001F17E4188427FF4D2AE43E08B
:1034A000F06848F20C01C0F29F1104F1200700EA15
:1034B000010C8ECF6FF00F00D4E90C5400EB02101A
:1034C0000022CFF6E07241EA0C0102EA05520843FD
:1034D000A2F500124FF07E4540EA032005EA04659C
:1034E000104305F17E4540EAC7602843F06030682C
:1034F00040F080703060F06840F08070F060FEF75F
:10350000C9FD0446306880010ED4FEF7C3FD001BE0
:1035100002284FF00300F5D9BCE6F0684FF6FC71C5
:10352000CFF6EE610840F060002002B0BDE8F08107
:10353000002804BF01207047416A19B100210161D0
:10354000142104E04168B1F5827F02D01C210022E1
:103550004250B0B50025856290F85D1029B980F819
:103560005C50044600F056F82046022180F85D10B9
:103570000168D0F80CE00B68BEF5E06F23F0400363
:103580000B6098BF01254EF40063B3F5706F4FEAEE
:10359000053C1CBF00258562D0E90154D0E9043206
:1035A00005F4827504F404442C4403F0020323441C
:1035B000846902F00102C5691A4404F400731A44D4
:1035C00005F03803056A1A4405F08003856A1A4439
:1035D00005F400531A430A600422436A0EF470652E
:1035E00002EA1442446B45EA0C0503F010032A4337
:1035F00004F008041A4322434A60CA6922F40062B4
:10360000CA6100210122016680F85D20BDE8B0405A
:103610000846704780B586B0006843F20002C4F2E5
:10362000010200219042CDE90411CDE9021101917E
:1036300001D006B080BD41F24C00C4F202004269E4
:1036400042F480524261426902F480520092009A30
:10365000026842F001020260006800F00100009080
:103660000098E02001900220CDE90201052004919C
:10367000059001A94FF09040FEF72EFC06B080BDEA
:10368000411E0020B0EB116F1CBF012070474EF2AD
:103690001002CEF2000251604EF62351CEF200012C
:1036A000F0230B7007219060116070477047000095
:1036B000704700007047000090F83C20012A04BFCA
:1036C00002207047B0B5012280F83C20D1E90232D7
:1036D000D1E900CE22F47C5223F4705343EA020471
:1036E00048F2FF73CEF6F0730EEA0302224303F5AD
:1036F000006404EA0C0442EA040C0C6903F5C052AD
:1037000022404C6942EA0C02224303F560542240F5
:103710000C6B03F5F04323401A438B6940F2000C15
:10372000CC69CEF6FF7C0CEA034C1443026842F6E7
:103730000043C4F201039A4244EA0C030BD045F261
:103740000004C4F20104A24205D043F20044C4F2D2
:103750000104A24217D14FF6FF74CDF60F4403EADD
:10376000040ED1E9084CD1E90A310025CDF6F04527
:1037700005EA035343EA0E0324F008552B432CF0CB
:1037800000552B430B430021536480F83C1000206C
:10379000B0BD000070470000704700007047000097
:1037A00090F83C20012A4FF0020266D070B5012348
:1037B00080F83C3080F83D20026842F6004C5468A6
:1037C0009368C4F2010C45F2000E6245C4F2010E8A
:1037D00018BF72452AD14D6824F470042C434FF66B
:1037E0008F75CFF6FF550E682C4042F6FF35C4F2B8
:1037F00001053443AA4254600DDC40F2FF76C4F266
:103800000006B24219DCB2F1804F29D040F20046E6
:10381000C4F2000622E043F6FF74C4F20104A2429F
:1038200016DC62451CD043F2004615E043F2004529
:10383000C4F20105AA42CED0D1E740F60006C4F298
:103840000006B2420CD040F60046C4F2000605E085
:10385000724505D044F20006C4F20106B24204D11A
:10386000896823F08003194391600121002280F8C8
:103870003D1080F83C20BDE87040104670470000C5
:1038800070470000002804BF0120704710B50446AF
:1038900090F83D0028B9002084F83C00204600F054
:1038A00023F8022084F83D002068211D02F07EFEEE
:1038B000012084F8480084F83E0084F83F0084F832
:1038C000400084F8410084F8420084F8430084F802
:1038D000440084F8450084F8460084F8470084F8E2
:1038E0003D00002010BD000080B584B0006844F2A7
:1038F0000001C4F20101884237D041F20001C4F254
:103900000001884219D040F60041C4F2000188420B
:1039100038D141F25800C4F202000168002241F09F
:10392000080101600068002100F00800039003987E
:103930003220FEF76FFF322012E041F25800C4F24D
:1039400002000168002241F01001016000680021BE
:1039500000F01000029002983620FEF75BFF362040
:1039600004B0BDE88040FEF743BF41F25800C4F206
:103970000200816841F480318160806800F4803009
:103980000190019804B080BD90F83D1001291BD131
:10399000022180F83D10016842F6FF32C868C4F287
:1039A0000102914240F00100C8600FDC40F2FF705C
:1039B000C4F20000814218DCB1F1804F2CD040F2FB
:1039C0000040C4F2000025E00120704743F6FF707C
:1039D000C4F20100814213DC42F60040C4F201004F
:1039E000814219D043F2004012E040F60000C4F2D8
:1039F0000000814210D040F60040C4F2000009E00F
:103A000045F20000C4F20100814205D044F20000FA
:103A1000C4F2010081420CD188680722C0F2010281
:103A20000240062A4FF00000CFD0B2F5803F08BF19
:103A30007047086840F001000860002070470000EF
:103A400090F83C20012A4FF0020200F0A18010B54E
:103A5000012380F83C3080F83D2004688822A36868
:103A6000CFF6CE721A40A2600B68B3F5005F0DDA94
:103A70003F2B21DD5F2B38DD602B00F0AB80702BFE
:103A800000F09880B3F5805F79D004E12F22C0F276
:103A90001002934217DD4F21C0F210018B4259DD15
:103AA0005021C0F210018B425FD06021C0F21001A2
:103AB0008B425AD0702153E01F2B0EDC002B54D0C8
:103AC000102B52D0E7E0B3F1101F0BDAB3F5005F13
:103AD00060D0B3F5801F48D0DDE0202B45D0302BDF
:103AE00043D0D8E041D020213AE0402B00F0A48020
:103AF000502B40F0D080D1F804C0D1F80CE0236AFC
:103B0000216A21F00102A4F18041A1F596314FEA2A
:103B1000B121092922620AD8012202FA01F140F2F8
:103B2000E52211421EBF216A21F004012162A16930
:103B300023F00A0221F0F00141EA0E1142EA0C02E0
:103B4000A1612262A1684FF68872CFF6CF72114050
:103B5000573113E03021C0F210018B4205D04021D3
:103B6000C0F210018B4240F09680A1684FF6887237
:103B7000CFF6CF721140194341F00701A160002236
:103B8000012180F83D10002180F83C10BDE8104074
:103B900010467047D1E901C3C968A26843EA0C0323
:103BA00022F47F4243EA01211143A160A16841F45C
:103BB0008041E3E7D1E901C3C968A26843EA0C0385
:103BC00022F47F4243EA01211143A160A16841F040
:103BD0007701D3E7D1F804C0D1F80CE0236A226A58
:103BE00042F60041C4F201018C4222F01001216230
:103BF0000BD045F20001C4F201018C4205D043F222
:103C00000041C4F201018C4203D1216A21F040013C
:103C10002162A16923F0A00221F4704141EA0E3132
:103C200042EA0C12A1612262A1684FF68872CFF6B7
:103C3000CF7211406731A1E7D1F804C0D1F80CE090
:103C4000236A216A21F00102A4F18041A1F5963195
:103C50004FEAB121092922620AD8012202FA01F1B0
:103C600040F2E52211421EBF216A21F004012162C7
:103C7000A16923F00A0221F0F00141EA0E1142EAA3
:103C80000C02A1612262A1684FF68872CFF6CF7252
:103C90001140473172E7012272E70000002804BF9B
:103CA000012070472DE9F047044690F83D000D468D
:103CB00028B9002084F83C00204600F04BF8022090
:103CC00084F83D0020684BF6F8728168CFF6FE72EA
:103CD00011408160211D02F069FC20684FF6FF78D9
:103CE00081688269D0F820C0D5E9003ED5E9026A32
:103CF00043EA0109AB6922EA080246EA03234FF6C8
:103D0000FC46B343D5E9076742EA0A0229691A4328
:103D100042EA062242EA01112CF0AA026B6942EA49
:103D20000E0241EA073142EA0312C0F808908161AD
:103D30000262012084F8480084F83E0084F83F00C5
:103D400084F8440084F8450084F83D000020BDE874
:103D5000F087000080B586B0006840F2FF71C4F2C1
:103D6000000188424FF000010591CDE90311CDE932
:103D7000011121DCB0F1804F5CD040F20041C4F26F
:103D80000001884240F0A08041F24C00C4F20200E1
:103D9000C16841F00201C160C16801F002010091F7
:103DA0000099016841F002010160006800F0020022
:103DB00000900098302079E040F60001C4F2000144
:103DC00088425CD042F60041C4F2010188427BD1B6
:103DD00041F24C00C4F20200416941F400614161CA
:103DE000416901F4006100910099016841F01001FE
:103DF00001600068002100F01000009000984FF46E
:103E00002060019002200290059040F20040C4F62C
:103E10000000CDE9031100F5406001A9FEF75CF850
:103E20001A200F210022FEF7F5FC1A20FEF7E0FC15
:103E300006B080BD41F24C00C4F20200C16841F0FE
:103E40000101C160C16801F00101009100990168A0
:103E500041F0080101600068002100F008000090B6
:103E600000981820019002200290059040F2004036
:103E7000C4F60000CDE9031100F5006021E041F235
:103E80004C00C4F20200C16841F00401C160C16885
:103E900001F0040100910099016841F00201016004
:103EA000006800F0020000900098C02001900220FD
:103EB0000290059040F200400021C4F600000391FA
:103EC000049101A9FEF708F806B080BD80B590F80E
:103ED0003E2090F83F3090F844E090F845C0042927
:103EE00009D099B9012A4FF0010208BFBEF1010FB4
:103EF00022D0104680BD012B4FF0010208BFBCF15B
:103F0000010FF6D1022280F83F2012E0012A4FF083
:103F1000010208BF012BECD1BEF1010FE9D1BCF1C8
:103F2000010FE6D1022280F83E2080F83F2080F881
:103F3000442080F8452004E0022280F83E2080F8EA
:103F4000442002680429136A04D031B923F0010126
:103F500001230DE023F0100109E023F001011162BB
:103F6000116A41F001011162116A21F01001102360
:103F70001162116A1943116200680022016841F060
:103F800001010160104680BD70470000F0B581B0AE
:103F900004460068C5680669B10716D515F0020128
:103FA00013D06FF002010161012121778069800740
:103FB00003D02046FFF7E8FF05E0204600F0CAF8EE
:103FC000204600F011FB00202077700718D515F06F
:103FD000040015D020686FF00401016102212177EF
:103FE000806910F4407F03D02046FFF7CDFF05E045
:103FF000204600F0AFF8204600F0F6FA00202077C7
:10400000300717D515F0080014D020686FF00801AC
:10401000016104212177C069800703D02046FFF7A2
:10402000B3FF05E0204600F095F8204600F0DCFAEA
:1040300000202077F00618D515F0100015D0206864
:104040006FF01001016108212177C06910F4407FF1
:1040500003D02046FFF798FF05E0204600F07AF8ED
:10406000204600F0C1FA00202077F00718BF15F0B5
:10407000010006D020686FF001010161204600F0C8
:1040800069FB16F4025F05F0800718BF002F02D10C
:10409000F00509D410E020686FF402510161204658
:1040A000FFF706FBF00507D537B120686FF4807184
:1040B00001612046FFF7FAFA700609D515F04000B5
:1040C00006D020686FF040010161204600F0BAFB85
:1040D000B00609D515F0200006D020686FF0200149
:1040E00001612046FFF7E6FAF00209D515F48010C9
:1040F00006D020686FF4801101612046FFF74CFB69
:10410000B00209D515F4001006D020686FF4001134
:1041100001612046FFF73EFB700209D515F48000CF
:1041200006D020686FF4800101612046FFF736FB5E
:1041300030020CD515F4000009D021686FF400029C
:1041400020460A6101B0BDE8F040FFF799BB01B01D
:10415000F0BD00007047000090F83C30012B04BF18
:10416000022070474FEAB2020123052A80F83C3052
:1041700000F2EB812DE9F041DFE812F00600480182
:104180009200ED005500A30103681D6A1A6AA3F1AD
:10419000804622F001021A621A46D3F8048052F8CF
:1041A00018CF8F68A6F59636D1F800E025F0020505
:1041B0004FEAB626092E45EA07050DD80127B74074
:1041C00040F2E524274207D01C6A25F0080524F0B8
:1041D00004041C62CC682543092E0CD80124B44089
:1041E00040F2E52634421FBFD1E9054628F4407766
:1041F0003C4344EA06084FF68C74CFF6FE740CEA92
:10420000040747EA0E07C3F804809F614F680969F5
:104210005F631D629F6947F008079F619F6927F0F0
:1042200004079F618BE10368D3F820C01A6AA3F1E9
:10423000804722F480321A621A46A7F596375D68E5
:1042400052F8508FD1F800E08E684FEAB727092F57
:104250000AD80124BC4040F2E5273C421EBF4C690D
:1042600025F4803545EA04252CF4003747EA064753
:104270004FF68C76CFF6FE76033606EA080646EA57
:104280000E065D601E654E6809699E641F621F6DA3
:1042900047F008071F651F6D27F004071F654EE1F3
:1042A000036842F600461D6A1A6AC4F2010622F447
:1042B00080721A621A46D3F804C052F81C8FB342B7
:1042C0008E68D1F800E025F4007545EA06250BD08C
:1042D00045F20006C4F20106B34205D043F200469F
:1042E000C4F20106B34208D11E6A25F4006526F423
:1042F00080661E62CE6845EA0625A3F18046A6F5D3
:1043000096364FEAB626092E0DD8012707FA06F68B
:1043100040F2E5273E421FBFD1E905672CF4405427
:10432000374344EA071C4FF68C74CFF6FE7404EA58
:10433000080444EA0E07C3F804C0DF614F68096946
:10434000DF631D62DF6947F00807DF61DF6927F07F
:104350000407DF61F3E0036842F600461D6A1A6A4B
:10436000C4F2010622F480521A621A46D3F804C03D
:1043700052F81C8FB3428E68D1F800E025F4005546
:1043800045EA06350BD045F20006C4F20106B342F9
:1043900005D043F20046C4F20106B34208D11E6ABA
:1043A00025F4004526F480461E62CE6845EA0635AF
:1043B000A3F18046A6F596364FEAB626092E0DD80B
:1043C000012707FA06F640F2E5273E421FBFD1E972
:1043D00005672CF44044374344EA871C48F6FF4401
:1043E000CFF6FF6404EA080444EA0E27C3F804C0C9
:1043F000DF614F6809691F641D62DF6947F4006768
:10440000DF61DF6927F48067DF6197E0036842F6C8
:1044100000461D6A1A6AC4F2010622F010021A62EE
:104420001A46D3F804C052F818EFB3428E68D1F898
:10443000008025F0200545EA06150BD045F2000660
:10444000C4F20106B34205D043F20046C4F20106AD
:10445000B34208D11E6A25F0800526F040061E6290
:10446000CE6845EA0615A3F18046A6F596364FEAD2
:10447000B626092E0DD8012707FA06F640F2E527E1
:104480003E421FBFD1E905672CF44064374344EA3C
:10449000870C48F6FF44CFF6FF640EEA040747EAAC
:1044A0000827C3F804C09F614F6809699F631D62B4
:1044B0009F6947F400679F619F6927F480679F6148
:1044C0003CE00368D3F820C01A6AA3F1804722F4C5
:1044D00080121A621A46A7F596375D6852F8508F17
:1044E000D1F800E08E684FEAB727092F0AD80124D7
:1044F000BC4040F2E5273C421EBF4C6925F48025B4
:1045000045EA84252CF4001747EA065748F6FF468B
:10451000CFF6FF6606F5407606EA080646EA0E265E
:104520005D601E654E680969DE641F621F6D47F499
:1045300000671F651F6D27F480671F6509021368F8
:10454000194300231160BDE8F041002180F83C10C0
:1045500018467047002804BF0120704710B5044674
:1045600090F83D0028B9002084F83C00204600F077
:1045700023F8022084F83D002068211D02F016F87F
:10458000012084F8480084F83E0084F83F0084F855
:10459000400084F8410084F8420084F8430084F825
:1045A000440084F8450084F8460084F8470084F805
:1045B0003D00002010BD0000006843F20041C4F23D
:1045C0000101884218BF704781B041F26000C4F217
:1045D0000200016841F400510160006800F40050DD
:1045E0000090009801B070477047000080B559B145
:1045F0000B1F4FEAB30C43224FF03F0EBCF1040FE8
:1046000038BF0EEBB30200E03E22825C012A1CBFE1
:10461000012080BD61B10A1F4FEAB202032A17D8F8
:10462000DFE802F002120A0E022280F83F2012E0B8
:10463000022280F83E200EE0022280F841200AE0AB
:10464000022280F8422006E0022280F8402002E0A8
:10465000022280F84320026801F01F000121136A42
:1046600001FA00F083431362136A18431062A2F147
:104670008040A0F596304FEAB02342F6FF30072B7A
:10468000C4F2010050D8994011F0E50F4CD0516CA4
:10469000824241F4004151640DDC40F2FF70C4F2EB
:1046A0000000824216DCB2F1804F2AD040F2004076
:1046B000C4F2000023E043F6FF70C4F2010082421E
:1046C00013DC42F60040C4F20100824219D043F2EA
:1046D000004012E040F60000C4F20000824210D018
:1046E00040F60040C4F2000009E045F20000C4F2C8
:1046F0000100824205D044F20000C4F2010082426F
:104700000CD190680721C0F20101014006294FF049
:10471000000008D0B1F5803F08BF80BD106840F0B0
:1047200001001060002080BD8242B6DD43F6FF71BB
:10473000C4F201018A42C4DD44F20001C4F2010165
:104740008A42DED045F20001C4F201018A429ED0C5
:10475000E4E7000040F60801C2F20001884218BFF9
:10476000704770B540F6A854C2F2000494F90010E6
:10477000D4E90202401842EBE171D0F1C7024FF0D8
:1047800000028A414FF00102C4E902010EDB80F011
:1047900032030B4317D080F064030B4312D080F038
:1047A00096030B4308BF84F81D220EE080F0C80377
:1047B0000B4307D080F0FA030B4304D080F49672C9
:1047C0000A4302D1002284F81D224CF6CD45CCF6D6
:1047D000CC45A0FB05234FF0CC3600FB063001FB97
:1047E0000500D10741EA5001C00740EA5200D0F16C
:1047F000993049F69910C1F69910884103D304F114
:10480000B80003F01BF9D4E90201A0FB052300FB6B
:10481000063001FB0500910741EA9001800740EA5C
:104820009200D0F1CC304CF6CC40C0F6CC40884160
:10483000BDE8704000D2704740F6A850C2F20000B8
:1048400004F0FAB87047000090F88410012904BF02
:10485000022070472421C0F8881001680A680B689C
:1048600022F0005223F001030B60002343660A602C
:104870002021C0F8881080F88430002070470000A4
:10488000704700007047000090F88420012A04BFA0
:1048900002207047B0B50123242280F88430C0F88C
:1048A00088200268D0F864E0D2F800C01468BEF135
:1048B000000F24F001041460946824F0606441EA5D
:1048C000040191601BD0916893684AF6383E5B0FF3
:1048D000C0F6000E4AF640351EF80340C0F600054B
:1048E000EB5CE400B4FBF3F3C1F34261A0F86A307F
:1048F0001EF80130695CDB00B3FBF1F301E0A0F8C6
:104900006A302021A0F86830C2F800C0C0F88810D2
:10491000002180F884100020B0BD000090F88420B1
:10492000012A04BF02207047B0B50123242280F879
:104930008430C0F888200268D0F864E0D2F800C063
:104940001468BEF1000F24F001041460946824F090
:10495000604441EA040191601BD0916893684AF673
:10496000383E5B0FC0F6000E4AF640351EF8034095
:10497000C0F60005EB5CE400B4FBF3F3C1F3426165
:10498000A0F86A301EF80130695CDB00B3FBF1F37C
:1049900001E0A0F86A302021A0F86830C2F800C019
:1049A000C0F88810002180F884100020B0BD0000FD
:1049B0007047000070470000B0B501680446D0F8A9
:1049C0008800D4F88C50896809062CD521282AD172
:1049D000206850E8020F216820F0800041E80202C0
:1049E000002AF5D1E06F38B1FDF78EF820B1E06F05
:1049F000FDF706F9202835D0206850E8000F21681F
:104A000020F0C00041E80002002AF5D1206850E8FB
:104A1000020F216820F4000041E80202002AF5D1CB
:104A20002020C4F888002068806840064FF000000D
:104A300048D5222D18BFB0BD206850E8020F21686C
:104A400020F0400041E80202002AF5D1D4F88000AD
:104A500070B1FDF759F858B1D4F88000FDF7D0F8DF
:104A6000202805D11020C4F890000320B0BD00BF5D
:104A7000206850E8000F216820F4907041E800029F
:104A8000002AF5D14FF6FE70CEF6FF70216851E88E
:104A9000021F2268014042E80213002BF6D1E06EAB
:104AA000012809D1206850E8000F216820F010008B
:104AB00041E80002002AF5D12020C4F88C00002033
:104AC000E0666067B0BD00007047000070B5046824
:104AD00040F62F03E2692168A6681340202B05D118
:104AE00001F0200306F080555B1938D140F60F0322
:104AF00013400CD00123C1F2000306EA030C40F27C
:104B00002013C0F200430B4013EB0C032DD1C36EF6
:104B1000D50616D5012B14D111F0100311D0102198
:104B20002162A168490600F1FC80B0F85C10B0F881
:104B30005E20B0F85E30002B18BF914240F05B81E0
:104B400070BDD30240F1CB8016F4800300F0C78023
:104B50004FF480112162BDE87040FFF72BBF416F19
:104B60000029EDD0BDE870400847D30718BF11F405
:104B7000807307D001232362D0F8903043F0010303
:104B8000C0F89030930706F0010E0AD5BEF1000F71
:104B900007D002232362D0F8903043F00403C0F81A
:104BA000903053070AD5BEF1000F07D004232362CB
:104BB000D0F8903043F00203C0F8903013070CD5C2
:104BC00001F0200353EA0C0307D008232362D0F836
:104BD000903043F00803C0F8903013050BD511F066
:104BE000806308D04FF400632362D0F8903043F024
:104BF0002003C0F89030D0F89030002BA0D092065F
:104C00000AD501F0200106F08052891804D0416FC6
:104C100011B10446884720460168D0F89020896881
:104C200002F0280201F04001891807D10446FFF77D
:104C30004BFF0020C4F8900070BD00BF016851E830
:104C4000001F026821F4907142E80013002BF5D197
:104C50004FF6FE71CEF6FF71026852E8022F03682C
:104C60000A4043E80226002EF6D1C16E012909D17F
:104C7000016851E8001F026821F0100142E80013AA
:104C8000002BF5D12021C0F88C100021C1660268EC
:104C900041679168490640F1A18000BF016851E871
:104CA000021F026821F0400142E80213002BF5D1F7
:104CB000D0F88010002900F0918046F6A902C0F6D5
:104CC0000002044608468A63FCF75AFF00283FF4B6
:104CD00037AFD4F88000816BBDE8704008471306F9
:104CE00006D501F0800306F400069B1940F0B3805E
:104CF000530677D511F0400374D000BF016851E826
:104D0000001F026821F0400142E80013002BF5D19A
:104D10002021C0F8881000218167BDE8704000F0B4
:104D2000F7BCD0F880100A6851688BB2002B4AD0CB
:104D3000B0F85C60B34246D2A0F85E1011688906F4
:104D400035D400BF016851E8001F026821F480716A
:104D500042E80013002BF5D1016851E8021F0268F8
:104D600021F0010142E80213002BF5D1016851E85E
:104D7000021F026821F0400142E80213002BF5D126
:104D80002021C0F88C100021C16600BF016851E8E5
:104D9000001F026821F0100142E80013002BF5D13A
:104DA000D0F8801004460846FCF7AEFE20460221EB
:104DB0000167B0F85C10B0F85E20891A89B2BDE8CE
:104DC0007040FFF75DBDB0F85C1099427FF4B8AE5B
:104DD000126892067FF5B4AE022237E0BDE870405B
:104DE000FFF772BE13023DD511F080433AD0BDE803
:104DF0007040FFF7DDBD891A026852E8002F036892
:104E000022F4907243E80026002EF5D14FF6FE7290
:104E1000CEF6FF72036853E8023F0668134046E887
:104E20000235002DF6D12022C0F88C200022C26667
:104E3000426700BF026852E8002F036822F01002A8
:104E400043E80026002EF5D1022289B20267BDE8B0
:104E50007040FFF715BD816F00293FF471AEBDE8CA
:104E600070400847D2017FF56BAEB1F1FF3FC8BF7C
:104E700070BDBDE87040FFF705BD000010B5D0B1B2
:104E80000446D0F8880028B9002084F88400204621
:104E900000F026F82420C4F888002068A16A02687F
:104EA00022F00102026011B1204601F029FC2046E7
:104EB00002F0F2F808B1012010BD2168486820F422
:104EC00090404860886820F02A008860086840F0B8
:104ED000010220460A60BDE8104001F085BC0000D8
:104EE0002DE9F0479CB0044600201B90CDE9190045
:104EF000CDE9170002A85421FBF7D4F9206844F645
:104F0000FF31C4F20001884200F3918044F2004175
:104F1000C4F20001884200F0FE8044F60001C4F2B1
:104F20000001884240F0C98104200290002602A8B6
:104F30000596FDF72FFD002818BFFCF783F841F216
:104F40004C00C4F20200C16840F6000741F4802121
:104F5000C160C168C4F6000701F480210191019984
:104F6000016817AD41F010010160016840F20808C6
:104F700001F010010191019901684FF0020941F01F
:104F80000201016000684FF0070A00F00200019082
:104F900001984FF40040179007F500602946C4F2CD
:104FA0000208CDE918961A96CDF86CA0FCF794FF8C
:104FB0004FF48060CDE91709A7F580602946CDE957
:104FC0001966CDF86CA0FCF787FF40F2C04508F1E8
:104FD0005000C2F200051C21802785E843002846C6
:104FE000C5E90367C5E90566C5E90766FCF758FE2C
:104FF000002818BFFCF726F8C4F88050AC6240F2D5
:10500000205508F16400C2F200051D211022002382
:1050100085E88F002846C5E90533C5E90733FCF765
:105020003FFE00284FF0270640F0D5803BE143F6D5
:105030000001C4F20101884200F0D08044F6004132
:10504000C4F20001884240F0388108200290002616
:1050500002A80696FDF79EFC002818BFFBF7F2FF9A
:1050600041F24C00C4F20200C16840F2080841F469
:105070000021C160C168C4F2020801F4002101915D
:105080000199016841F004010160006817A900F06E
:105090000400019001984FF4406017900220CDE980
:1050A000180605201B9040F60000C4F600001A9672
:1050B000FCF712FF40F2802508F17800C2F20005EB
:1050C0001E21802785E843002846C5E90367C5E916
:1050D0000566C5E90766FCF7E3FD002818BFFBF786
:1050E000B1FFC4F88050AC6240F2E02508F18C00BA
:1050F000C2F200051F211022002385E88F002846F8
:10510000C5E90533C5E90733FCF7CAFD00284FF0B0
:10511000340660D1C7E00225002602A80295049655
:10512000FDF738FC002818BFFBF78CFF41F24C005C
:10513000C4F20200C16840F2080841F40031C160C5
:10514000C168C4F2020801F40031019101990168BB
:1051500041F001010160006817A900F00100019011
:1051600001980C2061C107201B9017A94FF09040B7
:105170001A96FCF7B1FE40F2004508F12800C2F291
:1051800000051A21802785E843002846C5E9036702
:10519000C5E90566C5E90766FCF782FD002818BF6A
:1051A000FBF750FFC4F88050AC6240F2604508F154
:1051B0003C00C2F200051B211022002385E88F006D
:1051C0002846C5E90533C5E90733FCF769FD002822
:1051D0004FF0260667D0FBF735FF64E00120029010
:1051E000002602A80396FDF7D5FB002818BFFBF7A1
:1051F00029FF41F24C00C4F20200416940F2080864
:1052000041F4804141614169C4F2020801F48041E6
:1052100001910199016841F004010160006817A93A
:1052200000F0040001900198302017900220CDE991
:10523000180607201B9040F60000C4F600001A96DE
:10524000FCF74AFE40F24035C2F2000518208027E4
:10525000C5E900802846C5E90266C5E90476C5E9C6
:1052600006662E62FCF71CFD002818BFFBF7EAFE5D
:10527000C4F88050AC6240F2A03508F11400C2F2CC
:10528000000519211022002385E88F002846C5E972
:105290000533C5E90733FCF703FD00284FF0250669
:1052A00018BFFBF7CFFE304600210022E567AC6255
:1052B000FDF7B0FA3046FDF79BFA1CB0BDE8F08769
:1052C000D0F88C30202B0AD194460A4600294FF0A2
:1052D000010118BFBCF1000F04D10846704702213C
:1052E00008467047B0B54FF0000EC0F86CE0036898
:1052F00048F20004C4F20004A3420DD05B681B0214
:105300000AD500BF036853E8003F046843F0806398
:1053100044E800310029F5D122218265A0F85CC063
:10532000C0F890E0C0F88C10D0F880301BB346F67F
:105330006D11C0F6000146F6112446F6B10E03F1D8
:105340002C07C0F60004C0F6000E87E81240016882
:1053500000259D632431044618466346FCF736FD5C
:105360000146204639B11021C0F890102021C0F824
:105370008C10012121E0016951B100BF016851E8A1
:10538000001F026841F4807142E80013002BF5D140
:10539000016851E8021F026841F0010142E802136E
:1053A000002BF5D1016851E8021F026841F040016D
:1053B00042E80213002BF5D10021BDE8B0400846B9
:1053C00070470000D0F88C30202B1CBF02207047A3
:1053D00000294FF0010318BF002A01D11846704779
:1053E00080B50023C366D0F800C048F20003C4F2C1
:1053F00000039C4510D0DCF804301B020CD500BF24
:10540000036853E800CFD0F800E04CF080634EE82A
:10541000003CBCF1000FF3D101F09EFF0023BDE87A
:10542000804018467047000070B540F6EC01C2F2AB
:105430000001884238D00168CA69D20605D5102219
:105440000A620446FFF7B8FA204640F68014C2F21A
:105450000004A0423DD040F61424C2F20004A04251
:1054600050D040F6A824C2F20004A04218BF70BD7C
:1054700040F6EC004AF64831C2F20000C0F60001E6
:1054800002F0F4FF2068FF22016841F01001016082
:1054900041F20221C2F200012046FFF711FF40F263
:1054A0008020C2F2000048E040F69F55C2F200059D
:1054B0002878022857D0012842D0002878D140F619
:1054C0009C50C2F200000078432804BF01202870DD
:1054D0006EE040F6EC00C2F2000043A102F0C6FF0D
:1054E0002068FF22016841F01001016041F20401CF
:1054F000C2F200012046FFF7E3FE40F20040C2F294
:1055000000001AE040F6EC004AF64831C2F2000012
:10551000C0F6000102F0AAFF2068FF22016841F0F6
:105520001001016041F20311C2F200012046FFF7B1
:10553000C7FE40F2C040C2F200000068406870BD83
:1055400040F69C50C2F20000007840F69D51C2F235
:105550000001087040F69E50C2F200000021017068
:105560000220287024E040F69C50C2F2000000782F
:105570000D2801D00A2828D140F69E50C2F2000022
:1055800040F69D52017840F68850C2F20002C2F205
:10559000000000261478465404F0C6FD51EC100BB0
:1055A000FBF763F800EE100A204601F04DFA2E706A
:1055B00040F6EC0040F69C51C2F20000C2F200013D
:1055C0000122BDE87040FFF7FDBE40F69E52C2F2D8
:1055D000000211781229EBD84B1C137040F6885248
:1055E000C2F200025054E3E77561727432206964BC
:1055F0006C650A00704700002DE9F04381B0044655
:10560000D0F88800202809D1894600294FF00100F0
:1056100018BF002A06D101B0BDE8F083022001B016
:10562000BDE8F0830020C4F8900021201D46C4F896
:1056300088001646FCF72EFDA4F85460A4F85660C6
:10564000A1680646B1F5805F02D12069002858D0D4
:10565000C8464FF00009B4F8560098B36F1C00BF5D
:105660002068C06900060ED4002FF9D0FCF712FDA7
:105670000146002D4FF003003DD0891BA9423AD8C6
:1056800020680068ECE7B8F1000F04D018F8010BAF
:105690002168886207E039F8020B21686FF35F2008
:1056A00088624FF00008D4F8880000F0210021281B
:1056B0002AD1B4F856000138A4F85600B4F85600C0
:1056C0000028CDD12068C069400613D46F1C03E0C8
:1056D0002068C06940060DD4002FF9D0FCF7DAFC31
:1056E00001464FF0030035B1891BA94203D8206859
:1056F0000068EDE700202021C4F8881001B0BDE863
:10570000F0834FF00008A6E7012001B0BDE8F08368
:1057100070470000FEE7000040F28050C2F2000037
:10572000FCF708BD2DE9F04381B004460068164639
:105730008369DA0602D40021002048E00D461021DA
:10574000C16120688169890634D4002705F1010907
:105750004FF0000808E048F0200801272068816920
:1057600001F02001394328D1B9F1000FF6D0FCF740
:1057700091FC15B1801BA842F0D92068426894F8CA
:10578000421083691B040BD512F4804208D12029F2
:1057900006D0416841F480414160FCF77BFC06463D
:1057A000206880698006D9D4FCF774FC801B1A2815
:1057B000F6D3D0E70122042104E0B7FA87F14A09C1
:1057C00048F00401002A1CBF2022C2610120226887
:1057D0009369DF0507D45F050DD49B0513D4D0B9B9
:1057E00001B0BDE8F0834FF4807041F00101D06159
:1057F00001205F05F1D54FF4806041F00801D061D0
:1058000001209B05EBD54FF4007041F00201D061FF
:1058100001200028E4D093699B0744BF00239362D2
:105820009369DB0703D1936943F0010393615368E4
:105830004EF60007CFF600673B405360626C1143A1
:105840006164202184F84110002184F8421084F81A
:10585000401001B0BDE8F08370B50446006880696F
:10586000800619D415460E4608E000BF20688069FE
:10587000800615D52068806980060DD42046314603
:105880002A46FFF74FFF48B9FCF704FC002EEDD085
:10589000401BB042EED9E9E7002070BD012070BD89
:1058A000606C40F020006064202084F841000020FB
:1058B00084F8420084F84000012070BD10B58CB01F
:1058C00040F2340040F20041C2F20000C5F2000193
:1058D00000244FF4403210234FF0040C80E81E00E7
:1058E00001210B94CDE90944CDE90744CDE90544F4
:1058F000CDE90344CDE90144C0E90444C0F818C02F
:105900008483016280F82440C0E90B4480F8384069
:10591000C46380F84040FBF70DFE002818BFFBF77A
:1059200091FB40F23400C2F2000009A90994FBF790
:105930008FFB002818BFFBF785FB40F60000C2F67E
:105940003060019006207F21029000200491042104
:105950000390CDE9051040F23400C2F2000001A925
:10596000FBF718FC002818BFFBF76CFB0CB010BD50
:1059700080B584B041F24800C4F202000168002200
:1059800041F004010160016801F0040103910399F1
:10599000016841F001010160016801F0010102911B
:1059A0000299016841F0020101600068002100F0E5
:1059B0000200019001980B20FCF72CFF0B20FCF754
:1059C00017FF0C2000210022FCF724FF0C20FCF71D
:1059D0000FFF0D2000210022FCF71CFF0D20FCF71B
:1059E00007FF0E2000210022FCF714FF0E20FCF719
:1059F000FFFE0F2000210022FCF70CFF0F20FCF718
:105A0000F7FE102000210022FCF704FF1020FCF715
:105A1000EFFE112000210022FCF7FCFE1120FCF714
:105A2000E7FE382000210022FCF7F4FE3820FCF7C6
:105A3000DFFE392000210022FCF7ECFE3920FCF7C4
:105A4000D7FE3A2000210022FCF7E4FE3A20FCF7C2
:105A5000CFFE3B2000210022FCF7DCFE3B20FCF7C0
:105A6000C7FE3C2000210022FCF7D4FE3C20FCF7BE
:105A7000BFFE602000210022FCF7CCFE602004B0B5
:105A8000BDE88040FCF7B4BE2DE9F04F87B000249C
:105A900041F24C000694CDE90444CDE90244C4F23D
:105AA0000200016840F2004841F010010160016805
:105AB000C4F6000801F0100101910199016808F590
:105AC000406741F0040101600168002201F0040117
:105AD00001910199016840F2C35B41F0200101602E
